:100000000C94E0000C9418010C9418010C94180145
:100010000C9418010C9418010C9418010C941801FC
:100020000C9418010C9418010C9411190C94E519F6
:100030000C9433140C9418010C9418010C941801AE
:100040000C9418010C9418010C9418010C941801CC
:100050000C9418010C94BA140C9418010C94180107
:100060000C9418010C9418010C9418010C941801AC
:100070000C9418010C9418010C9418010C9418019C
:100080000C9418010C9418010C9418010C9418018C
:100090000C9418010C9418010C9418010C9418017C
:1000A0000C9418010C9418010C941801017E1E0385
:1000B00054007200610063006B00620061006C001C
:1000C0006C0020004E0061006E006F000000120303
:1000D00050006C006F006F007000790043006F00EB
:1000E00000000403090409023B00020100A03209D8
:1000F0000400000103010100092111010001224453
:100100000007058103080001090401000103000044
:100110000009211101000122490007058203200086
:100120000112010002000000084350A35401000125
:1001300002000105010902A10185020901A10005D2
:100140000919012908150025019508750181020585
:1001500001093009311581257F950275088106094D
:10016000381581257F950175088106050C0A38022E
:100170001581257F950175088106C0C00501090616
:10018000A101050719E029E715002501950875016A
:1001900081029501750881010507190029FF1500E5
:1001A00026FF009506750881000508190129051527
:1001B000002501950575019102950175039101C016
:1001C00011241FBECFEFDAE0DEBFCDBF04B603FEC1
:1001D00018C08091E7019091E801A091E901B091E8
:1001E000EA018730904BA740B04B59F41092E701D9
:1001F0001092E8011092E9011092EA01E0E0F8E3C0
:10020000099511E0A0E0B1E0EEE5FCE302C0059045
:100210000D92A033B107D9F721E0A0E3B1E001C00E
:100220001D92A73EB207E1F70E94A60F0C94EE1DA7
:100230000C940000ACE0B0E0E0E2F1E00C944F1D63
:100240004F8358878B879C87172F80913A0188238B
:1002500009F46AC0062E000C770B880B990B0E94DC
:10026000A31C20E030E040EA52E40E94F91B2091F8
:1002700036013091370140913801509139010E9487
:100280008D1B4B015C01612F110F770B880B990BB4
:100290000E94A31C20E030E040EA52E40E94F91BD7
:1002A0002091320130913301409134015091350158
:1002B0000E948D1B6B017C01C501B4010E946B1C67
:1002C000062F6C87C701B6010E946B1C162F6B8727
:1002D000602F000F770B880B990B0E94A31C9B01CA
:1002E000AC01C501B4010E948C1B60933601709370
:1002F00037018093380190933901612F110F770BEB
:10030000880B990B0E94A31C9B01AC01C701B6018D
:100310000E948C1B609332017093330180933401EF
:100320009093350110E060E04F815885712F8B85E7
:100330009C850E94C10F80E090E02C96ECE00C942C
:100340006B1D0F931F93CF93DF938C01EB010E94E2
:100350005802882339F101159EE7190741F5CD812F
:10036000CC2301F18091CE0190E0019665E070E030
:100370000E942F1D8093CE016091CE017091CF011C
:100380008091D0019091D1010E94D60BE091CE01D5
:10039000F0E0EE0FFF1FE050FF4F808191810E943F
:1003A00096108C2FDF91CF911F910F9108950130FE
:1003B0001E47C1F79D8190933A01F4CFA1E1B0E0CF
:1003C000E4EEF1E00C94571D81E1E7E1F1E0DE019C
:1003D000119601900D928A95E1F7FE013196AE01DA
:1003E0004E5E5F4F61E070E08191A82FA295AF70E3
:1003F000B0E091962C9191978F708B0102C0000F05
:10040000111F8A95E2F7C801922F982B91969C9321
:10041000919792969C9192978095892392968C932E
:100420004E175F0709F70E949C0C6196E4E00C945C
:10043000731D84E08093CE016091CE017091CF0155
:100440008091D0019091D1010E94D60B0E94E40BC3
:1004500008950E94D10B6093CE017093CF018093D9
:10046000D0019093D101663010F00E941902E09102
:10047000CE01F0E0EE0FFF1FE050FF4F8081918131
:100480000E9496100895642B682B29F4ECEAF0E0A2
:1004900085919491089581E090E008950E9443022F
:1004A000089581E008950E945102089581E0089521
:1004B0000E945102089508950E945B020895A6E0EB
:1004C000B0E0E5E6F2E00C94581D49835A839E8320
:1004D0003091400189819A8131111AC03E813323C4
:1004E00099F0222389F00E948B07182F682F8981A9
:1004F0009A810E94750769817A81812F0E942A0E54
:100500002696E3E00C94741D0E948007182FF3CF09
:100510000E948B0769817A81F1CFFC01262F4081EF
:10052000518162817381848195810E945F02089567
:10053000CF93DF93EC0161E00E948D02BE010E9427
:100540005302DF91CF910895CF93DF93EC0160E0E8
:100550000E948D02BE010E945C02DF91CF9108953E
:1005600081E008950E94B0020895CF93C82F0E94A1
:100570004A068C2F0E94B2022FEF84E39CE02150A8
:1005800080409040E1F700C00000CF91089581E0E5
:100590000E94B5020E94DE14089580E00E94B50218
:1005A0000E94021508950F931F93CF93DF938C0140
:1005B00061E00E948D02EC01B8010E94A10181114D
:1005C00006C080E0DF91CF911F910F910895B8018F
:1005D000CE010E94EC128823A1F3B801CE010E9443
:1005E000AC11882371F3B801CE010E9482118823D7
:1005F00041F3F8018581882361F0C330FCE7DF0710
:10060000E9F058F4C115ECE7DE07A9F0C130DC478A
:10061000B9F0C8010E945602D5CFCB358CE7D80778
:10062000A9F0CC35ECE7DE0771F0CA35DC4789F775
:100630000E94A20BEECF0E94C702C3CF0E94AA0B5A
:100640000E94CD02BECF0E94980BE3CF0E94A60B62
:10065000E0CF0E9415140E944B030E94441008959D
:100660000E944F030E941A14089581E0089508958E
:10067000CF93DF93D82F0E943503C82F882319F01A
:100680008D2F0E9437038C2FDF91CF91089508950D
:100690000E943803089580E00E94480308950E9454
:1006A00035130E9448030895CF930E943513C82F35
:1006B00080913B018C1779F0C0933B010E949F14FD
:1006C00060933C0170933D0180933E0190933F0104
:1006D0008C2F0E944803CF910895ADE0B0E0E3E78E
:1006E000F3E00C94591D488759876A877B878C876C
:1006F0009D8791110E94D80A1F8286E0FE013896DC
:10070000DE01119601900D928A95E1F78D8181119C
:100710000DC029813A814B815C816D817E818F8101
:100720000E94220A2D96E2E00C94751DCE010196DE
:100730000E9498028111EDCFF5CFFC012481213078
:1007400021F4808191810E94BD07089593E3980F61
:10075000933118F490E00E949C100895CF93C82F15
:10076000882399F08CEF8C0F813A88F48C2F0E94AB
:100770007013882329F08C2F0E94B3130E94470B1B
:100780008C2F0E94AB130E94470BCF91089580E2FB
:100790008C0F883048F4C77081E001C0880FCA957B
:1007A000EAF70E94BB0AEFCF83E38C0F833168F72F
:1007B00061E08C2F0E94A603E8CF8823F1F09CEF24
:1007C000980F913A28F40E94B3130E94470B0895A2
:1007D00090E2980F983050F4877091E001C0990F23
:1007E0008A95EAF7892F0E94C10AEFCF93E3980F09
:1007F000933118F460E00E94A60308951F93CF93ED
:10080000DF93182FEB010E94AE03209739F4812F5C
:100810000E94DD03DF91CF911F9108958FE99FE042
:100820000197F1F700C000002197EFCF70E060E082
:10083000893311F460E570E00E94FE030895882377
:1008400021F00E94BB0A0E94470B0895882321F0E3
:100850000E94C10A0E94470B0895B0E0A0E0E3E3C4
:10086000F4E00C94521D6C01D62FC72FFC011581AA
:10087000068102950F700E94B10AE82E8823F9F0D4
:10088000E12E1123E1F08C2F807F803461F080E233
:100890008D0F883008F18C2F807E803221F4D23089
:1008A000D8F00023C9F08091D30182FF15C082E007
:1008B0000E946C0B0E94B10A91E0E82EE926BC2E42
:1008C000B2949FE0B922FBE0FB15B8F1EB2DF0E00C
:1008D000E051F24E0C94431DE12CF1CF0C2F0F7020
:1008E000C07F11F00295007F112399F0002359F089
:1008F00080E28D0F883010F0D11107C0802F0E9448
:10090000BB0A0E94470B8D2F5AC0802F0E94CB0A32
:10091000F8CF8D2F0E94DD03002379F080E28D0F48
:10092000883010F0D11104C0802F0E94C10A03C08A
:10093000802F0E94D10A0E94470BEB2DE850FF0B3D
:10094000349720F40E9435130E944803EE2089F06A
:100950000E94AD0A80FD0DC0F60115820E94A70A13
:100960000E94D306C6010E941D060E94A70A0E948B
:10097000E306CDB7DEB7E9E00C946E1D2C2F2F7087
:10098000F22EC07FC03219F0F29480EFF822DD23FE
:1009900041F0D130D1F1112309F444C00023F1F02A
:1009A000B2CF8091D30182FD15C0112359F0FF20F1
:1009B00029F08F2D0E94BB0A0E94470B80E00E9405
:1009C000AE03BBCF80E00E94DD03FF2009F4B5CF6A
:1009D0008F2DABCF112369F0011104C08F2D0E9420
:1009E0001F04ABCF013009F0A8CF8F2D0E94EF0A72
:1009F000A4CF0111A2CF8F2D0E9426048F2D0E941B
:100A0000FB0A8F2D0E94DF0A98CF112321F00630B8
:100A100008F093CFE3CF053008F08FCF8F2D0E94E1
:100A200026048BCF0023D1F3D93349F43FEF87EE6F
:100A300093E0315080409040E1F700C000008D2FDE
:100A40000E94DD037ACF612F8D2F0E94A60375CF00
:100A50008C2F8370A1F5111170CF4D2F42954695C3
:100A60004770440F440F2D2F2F7030E0042E02C02A
:100A7000220F331F0A94E2F790E080E0D4FF09C010
:100A80008FE090E002C0880F991F4A95E2F78095A9
:100A90009095C695C695C370822B932BC23049F0B2
:100AA00058F4C13019F00E94A30647CF0E949A065D
:100AB00044CF0E94AC0641CF0E9497063ECF869558
:100AC000112311F08C2F8170882309F436CF4D2F1C
:100AD000429546954770440F440F2D2F2F7030E0FC
:100AE000042E02C0220F331F0A94E2F790E080E048
:100AF000D4FF09C08FE090E002C0880F991F4A958B
:100B0000E2F780959095C695C695C370822B932B7E
:100B1000C23049F058F4C13019F00E940E070DCFD1
:100B20000E9405070ACF0E94170707CF0E94BB0645
:100B300004CFCF70112329F08C2F0E94D3068D2F64
:100B40004ECF8D2F0E9426048C2F0E94E306F5CEF7
:100B5000D23F41F160F4D03FB9F0D13F81F0112391
:100B600009F443C00111CFCE8C2F8F711FC0D33F2A
:100B700001F1D43FA1F78091D30182FD24C08C2FD5
:100B80008F71112311F312C0112341F0053008F0C9
:100B9000D4CE8C2F8F710E94F506CFCE063008F090
:100BA000CCCEF7CF8C2F8F711111CFCF0E94D306EF
:100BB000C4CE112329F08C2F8F710E94C706BDCEA1
:100BC0000E94C206BACE112331F063E08C2F8F71E0
:100BD0000E944E0BB2CE81E00E946C0B023008F4F2
:100BE000ACCE82E00E946C0BA8CE002359F0D93322
:100BF00009F025CFEFEFF7EE23E0E150F040204081
:100C0000E1F71BCF8C2F8F71A0CF0F931F93CF9342
:100C1000DF93EC01688179818D810E94C8078C0186
:100C20000E9420070E949606B801CE010E942D0462
:100C3000DF91CF911F910F910895CF93DF93EC0136
:100C40008C81882399F0CE010E94D302811111C0BA
:100C50000E94B10A882351F08D81882339F0809158
:100C6000D30182FF03C082E00E946C0BDF91CF9121
:100C70000895CE010E940506CE010E94A402F6CF7F
:100C80000E94D80A0E94470B08950E94BB130E943D
:100C9000400608950E94C80A0E944506089592954C
:100CA0009F70963091F058F4925F9F70923058F494
:100CB000803F19F030F4883E30F481E008959A5F67
:100CC000F4CF843FD1F380E00895883EB0F3813FB4
:100CD000D1F7F3CFFC012481222339F08081918167
:100CE0000E94BD070E944F06089580E00895A6E087
:100CF000B0E0EDE7F6E00C94591D2696E2E00C9486
:100D0000751DA7E0B0E0E7E8F6E00C94591D2796C2
:100D1000E2E00C94751D08950E948B0608950E94D0
:100D20008C069093480180934701089508950E948E
:100D30008F0608952091470130914801822B932B13
:100D40000E948F0608952091470130914801822327
:100D500093230E948F060895209147013091480106
:100D6000822793270E948F0608950E948B0608957C
:100D70000E94B50608950E94B8069093460180939C
:100D80004501089590E080E00E94BB06089521E0AF
:100D900030E0A90102C0440F551F8A95E2F7CA014D
:100DA0000E94BB06089521E030E002C0220F331FED
:100DB0008A95E2F78091450190914601822B932B11
:100DC0000E94BB06089521E030E002C0220F331FCD
:100DD0008A95E2F7209530958091450190914601E2
:100DE000822393230E94BB06089521E030E002C0D5
:100DF000220F331F8A95E2F78091450190914601B9
:100E0000822793270E94BB060895209145013091C7
:100E10004601822B932B0E94BB0608952091450129
:100E200030914601822393230E94BB0608952091AE
:100E3000450130914601822793270E94BB06089501
:100E40000895262F277091E001C0990F2A95EAF79F
:100E500023E0769567952A95E1F7660F771F660F71
:100E6000771FFA01E60FF71F50E040E0682F70E0AF
:100E70008191DF0111979B01042E02C036952795C1
:100E80000A94E2F7217021952827292328272C93FB
:100E90004F5F5F4F4430510559F70895A82FA77051
:100EA00023E0969587952A95E1F7880F991F880F7B
:100EB000991FFB01E80FF91F50E040E080E021910D
:100EC00030E00A2E02C0369527950A94E2F7217089
:100ED0003327042E01C0220F0A94EAF7822B4F5FBA
:100EE0005F4F4430510559F70895262F892B39F467
:100EF00041E451E070E060E0822F0E9421070895F4
:100F0000892B39F461E471E090E080E00E944E07A3
:100F1000089580E00895B0E0A0E0E1E9F7E00C94E6
:100F2000521D7C01009145011091460180914701BD
:100F300090914801082B192BCFE0D0E0CC24C3942A
:100F4000D12CBC2EC6010C2E02C0880F991F0A940A
:100F5000E2F780239123892B49F4219790F7B12C54
:100F60008B2DCDB7DEB7E9E00C946E1DB7018C2F49
:100F70000E94330E019789F3F3CFCF93DF93EC01F7
:100F80000E948B07BE010E94330EDF91CF9108951E
:100F90001F93CF93DF93EB0190914001992339F098
:100FA000CB010E94BD07DF91CF911F910895882347
:100FB00069F0CB010E948B07182F682FCE010E9489
:100FC0007507BE01812F0E94330EEDCFCB010E9429
:100FD0008007182FF6CF1F93CF93DF93C09149015D
:100FE00017E080914A018C1304C0DF91CF911F91CB
:100FF0000895D0E01C9FF0011D9FF00D1124E55BCA
:10100000FE4F2081318142815381648175818681C7
:101010000E9481062196C770E4CF20918301309110
:101020008401409185015091860160918701709102
:101030008801809189010E9481060895CF93DF93F2
:1010400080918901807F09F04DC0809188018823BB
:1010500009F448C0E091490150914A01C0918401CE
:10106000D0918301609185017091860147E05E1700
:10107000C9F18E2F90E0E49FF0011124E55BFE4F53
:101080002481222391F1489FF001499FF00D112402
:10109000DF01A55BBE4F11962C9111972C1325C033
:1010A0002C912D1322C015962C91159721111DC03E
:1010B00012962D913C91261B370B283C3105A8F444
:1010C000809189018F70806180938901EF5AFE4F72
:1010D00080818F708061808383E891E00E941D068B
:1010E0000E94EB07DF91CF910895FC013196E770E4
:1010F000BECF482F2091490190914A0157E0291312
:1011000002C080E0089530E0529FF001539FF00D3F
:101110001124E55BFE4F8181681306C0808148136E
:1011200003C085818111EECF2F5F3F4F2770E7CF3E
:10113000A4E1B0E0EEE9F8E00C944F1D8C0186E0EC
:10114000F801DE011F9601900D928A95E1F7F801F2
:101150008481E58093E8A92E91E0B92E90918701D2
:1011600091111FC08823D1F0EE20A9F0C8010E9480
:101170006A06F82E882379F087E0F801D5010190FE
:101180000D928A95E1F7C5010E949D030E941E08F9
:101190000E940D085FC0C8010E941D06FF24F39441
:1011A00059C0C080D18082809380F09088012091C6
:1011B000850130918601A401421B530BFF2009F4E5
:1011C000F9C0483C510508F0A7C0882309F442C083
:1011D0009091840180918901282F207F09F05CC0C3
:1011E0009D1116C090918301C91212C0E1104EC02A
:1011F0008F708061809389010E940D0883E891E0DF
:101200000E941D0680918901F8018683F12C22C07D
:10121000E1103CC06D2D8C2D0E9479086D2D8C2D18
:101220000E947908E82E8111F1CFCF86D88A8F8568
:1012300098890E94BD07292F22952F70243078F4B9
:101240009F702230A8F09923B9F0F8019681907F21
:1012500099F4FE2C8F2D6496ECE00C946B1D2A5FA4
:101260002F70223068F0C8010E941D06EF2CF1CFCC
:10127000992311F0882369F3805E883050F3F3CF0F
:10128000803F38F3815F833070F7E3CF809189012D
:10129000816080938901BACF9D1113C09091830121
:1012A000C9120FC0E1100DC08683C8010E941D063F
:1012B00087E0F801A3E8B1E001900D928A95E1F78B
:1012C00067CFC8010E946A06882309F464CFEE2024
:1012D00009F461CF80918901803288F020918301E7
:1012E00030918401398728879B868A86909187016F
:1012F0009C871D868E87CE0108960E941D0687E07A
:10130000F801A3E8B1E001900D928A95E1F70E94FF
:101310001E080E940D0842CF90918901292F207F3D
:10132000A1F4682D9A8A898AA6017A899E2D0E9445
:10133000770683E891E00E941D0687E0F50111928F
:101340008A95E9F70E940D0861CF882309F482CFBE
:10135000809184018D1110C080918301C8120CC04E
:10136000E1100AC09683C8010E941D0687E0F501BE
:1013700011928A95E9F76ECFC8010E946A06882308
:1013800009F409CFEE2009F406CF8091890180325B
:1013900008F4B5CF20918301309184013A832983E9
:1013A0009C828B82909187019D831E828F83CE01C8
:1013B0000196A3CF483C5105B8F5882309F4EECE39
:1013C000FE2CEE2009F4E7CE809184018D111EC021
:1013D00080918301C8121AC08091890180FD0DC0DF
:1013E000982F907F51F08683903F09F45ECF982F1D
:1013F000907F905F8F70892B57CF87E0F801A3E82B
:10140000B1E001900D928A95E1F724CFC8010E94C6
:101410006A06811174CF809189018160809389016E
:10142000C8010E941D0616CF682D9A8A898AA601D6
:101430007A899E2D0E94770687E0F50111928A95A0
:10144000E9F7A6CEAEE0B0E0E8E2FAE00C94581D71
:10145000288739874A875B876C877D878E87CE018F
:1014600008960E9498088823B1F06C85662341F0A5
:10147000288539854A855B857D858E850E94810614
:1014800017E08091490190914A0189133DC02E9641
:10149000E3E00C94741D87E0FE013896DE0111969E
:1014A00001900D928A95E1F78C85882349F320916C
:1014B0004A0130E0C901019687709927409149019E
:1014C0004817190699F097E0929FD001939FB00DAD
:1014D0001124A55BBE4FFE01319601900D929A95A5
:1014E000E1F780934A010E94EB07CACF0E944A06A7
:1014F00010924A011092490187E0E3E8F1E0DF0130
:101500001D928A95E9F7BCCF819FC0011124855BAC
:101510009E4F0E949808882309F4B9CFE0914901B1
:101520001E9FF0011124E55BFE4F20813181428135
:1015300053816481758186810E9481068091490171
:1015400090E0019687709927809349019ACF809106
:10155000920186958695869508958091920187706F
:10156000089590919201977081E009F480E00895C8
:1015700080919E01089590919E01892B80939E01F8
:101580000895809590919E01982390939E010895CF
:1015900010929E01089590919D01892B80939D0149
:1015A0000895809590919D01982390939D010895B1
:1015B00010929D01089508950E94DB0A089590916C
:1015C0009301292F282331F080958923809393015B
:1015D0000E94DC0A089508950E94EB0A08959091F4
:1015E0009401292F2823281729F0982B90939401F0
:1015F0000E94EC0A089590919401292F282331F03C
:1016000080958923809394010E94EC0A089580912B
:101610009401882329F01092940180E00E94EC0A42
:1016200008950F931F93CF93DF9300910A011091B8
:101630000B01C0919E0180919D01C82B8091940166
:10164000882331F0C82B0E945B1381110E94070B85
:10165000F801C083C0910A01D0910B0148E050E02D
:101660006AE871E0CE010E94801D892B59F088E064
:10167000FE01AAE8B1E001900D928A95E1F7CE0152
:101680000E944213DF91CF911F910F9108950E9404
:10169000110B089508950E944A0B08959091D3016B
:1016A00092FF11C098E0899F90011124622B6093F2
:1016B00092010E94D3068091920186958695869527
:1016C0000E944B0B08950E94D30608951092920138
:1016D00080E00E944B0B08959091920180958923A0
:1016E00080939201282F277069F4891759F09091FF
:1016F000D30192FF07C08695869586950E94E306E2
:101700000E94660B08959091D30192FB222720F945
:10171000281769F080FB92F99093D3018091D20150
:101720009091D3010E94CB0B82E00E946C0B089534
:101730008091D30182FB882780F991E089270E945C
:10174000830B089581E00E94830B089580E00E943E
:10175000830B08956FEF7FEF90E080E00E94D81D2B
:10176000089590E080E00E94A41D21E0853E9E4FF8
:1017700009F020E0822F089582E090E00E94961DFB
:10178000089583E090E00E94961D089584E090E023
:101790000E94A41D0895BC0184E090E00E94D81D21
:1017A00008958FE090E00E949E1D0895AB01BC015A
:1017B0008FE090E00E94CC1D0895AB01BC0183E155
:1017C00090E00E94CC1D089560E070E0CB010E9483
:1017D000DD0B0895A8E0B0E0E0EFFBE00C94591DAC
:1017E00065EE7EEF90E080E00E94D81D60E082E030
:1017F00090E00E94BA1D81E090E0909348018093B0
:10180000470161E083E090E00E94BA1D60E074E16E
:1018100084E090E00E94D81D60E086E090E00E94A5
:10182000BA1D60E087E090E00E94BA1D40E050E001
:10183000BA0188E090E00E94CC1D60E083E290E075
:101840000E94BA1D60E08CE090E00E94BA1D60E04A
:101850008DE090E00E94BA1D19821A821B821C82C0
:101860001D821E821F82188648E050E067E170E00A
:10187000CE0101960E94AA1D40E050E0BA018FE11E
:1018800090E00E94CC1D0E9419022896E2E00C9480
:10189000751D0E94EA0B0895682F8EE090E00E946B
:1018A000BA1D0895A6E0B0E0E8E5FCE00C94571DF1
:1018B0000E9493148C0180919F019091A001801748
:1018C000910781F019821A820E949314682F49812E
:1018D0005A81792F80E090E00E946D031093A0015F
:1018E00000939F012696E4E00C94731D0E949F14C0
:1018F0006093AA017093AB018093AC019093AD010A
:101900006093A6017093A7018093A8019093A90109
:1019100008950E949F146093AA017093AB01809375
:10192000AC019093AD016093A2017093A3018093E9
:10193000A4019093A50108950895089508950E9423
:101940009E0C089589E29FE00E94BB0F0E949D0CAF
:101950000E94DE01089581E008950E94AB0C089575
:101960000E94AB0C0895089508950E94B30C0E9444
:10197000B40C08950E94B10B811102C00E94490C61
:101980000E94BC0B8093AE010E94C60B9093D301C2
:101990008093D2010E94C10B90E00E949706809133
:1019A0004501909146010E94B80608950E948A144C
:1019B0000E944C0F0E94BA0C0E9447030E94EF0F36
:1019C0000E949F0C0895A6E0B0E0E9EEFCE00C94C4
:1019D000571D0E94AD0C81110DC00E94520C0E9437
:1019E000441081110E94890C0E9454032696E4E061
:1019F0000C94731D0E94580F1091A10180E00E9469
:101A0000330F181751F38091AE0181FD0E94390FF9
:101A10000E94B00C082F80E00E94330F182F809195
:101A2000A101912F9827181303C00E94760CD7CFDD
:101A300090FF0FC0002369F019821A820E9493144C
:101A4000682F49815A81792F81E0912F91700E94EE
:101A50006D031093A101E9CF1F93CF93DF930E94F1
:101A6000380EEC01C11582E5D80708F03FC0C1155A
:101A700090E5D90708F0C2C0C83ED105C0F4C03E09
:101A8000D10580F4C53AD10548F4C430D10550F4ED
:101A9000C130D10539F0D0E0C0E004C0CD3CD10563
:101AA000D0F3D065CE01DF91CF911F910895C1157C
:101AB00080E4D80708F053C0C11590E2D90708F0B8
:101AC000B7C0C11581E0D80730F38D2F0E94DA0E20
:101AD000182FCE0199270E94380EC12FD0E0DC2F9D
:101AE000CC27CC27DF71C82BD92BDCCFC03892E5AF
:101AF000D907A8F4C03682E5D80708F063C0C0341F
:101B000092E5D90708F049C0C03282E5D80788F1CC
:101B1000CF71D0E0DC2FCC27C16FD06AC3CFC03CDF
:101B200092E5D90780F48C2F8F71C03AD24508F422
:101B30005EC00E94DA0EC82FD0E0DC2FCC27CC2765
:101B4000DF71D062AFCFC03E82E5D80708F0A3CFE7
:101B5000DC2FCC27CC27DF71C06FD06AA3CFCE019A
:101B600099270E94380ECC27DF70C82BD92BD06A5A
:101B700099CF2C2F2695269590E2299F900111242C
:101B80008C2F8370C1E0D0E002C0CC0FDD1F8A959E
:101B9000E2F7C22BD32BDD6885CF2C2F2695269517
:101BA000277080E2289F900111248C2F8370C1E060
:101BB000D0E002C0CC0FDD1F8A95E2F7C22BD32BF9
:101BC000DC6870CF2C2F26952695277090E2299FF0
:101BD000900111248C2F8370C1E0D0E002C0CC0FA3
:101BE000DD1F8A95E2F7C22BD32BDA685BCFC82FB3
:101BF000D0E0DC2FCC27C46FD06A54CF8C2F8F71EC
:101C00000E94DA0E55E0D695C7955A95E1F7CF7048
:101C1000D0E0DC2FCC27282F30E084FF05C044E043
:101C2000220F331F4A95E1F7C22BD32BD0693ACF4D
:101C30008D2F8F710E94DA0E182FCE0199270E94E6
:101C4000380EC12FD0E0DC2FCC27CC27DF71C82B7A
:101C5000D92B77CF672B21F440E00E944E020895E4
:101C600090E080E008950E942A0E0E942C0D0895B5
:101C700082389105B9F1B0F48133910509F47DC042
:101C800048F48932910509F46DC08A32910509F44E
:101C90007BC008958533910509F45FC089339105B0
:101CA00009F10895833E9105D9F138F4803E9105FC
:101CB00029F1823E910579F10895863E9105D9F189
:101CC000873E910509F43EC0843E910541F520917F
:101CD000D30121FF24C08091D20184FD19C087EE79
:101CE00090E008952091D201237009F05AC020910C
:101CF000D30123FF14C089E290E008952091D2011E
:101D000020FD38C03091D30130FF09C024FF43C00B
:101D100090E080E008952091D20122FDF7CF089550
:101D20002091D20122FD3AC03091D30130FD39C05B
:101D300024FFF5CFEDCF2091D20123FFF0CF24FD7A
:101D4000E7CFCDCF2091D20123FD2EC03091D3011A
:101D500031FFEECF84EE90E008952091D20125FF6F
:101D6000DECFC9CF2091D20125FD21C02091D30122
:101D700023FFD5CF89E390E0D2CF2091D20126FF77
:101D8000CECF8AE290E008952091D20126FFC7CFFE
:101D900081E390E0089583EE90E0089582EE90E074
:101DA000089580EE90E0089586EE90E0089585E332
:101DB00090E008959091D20192FF10C041E0282F49
:101DC0002471243009F040E031E0282F28712830B8
:101DD00009F030E0431711F02CE0822793FF10C088
:101DE00041E0282F2471243109F040E031E0282F10
:101DF0002871283109F030E0431711F02CE08227D8
:101E00003091D30130FF10C051E0282F21712130D3
:101E100009F050E041E0282F2871283009F040E017
:101E2000541711F029E0822731FF10C041E0282F1C
:101E30002171213109F040E031E0282F287128314B
:101E400009F030E0431711F029E0822794FD877EE6
:101E5000089580E0089508950E942B0F0895089535
:101E60000E942F0F0895E82FF0E0EB52FE4F808183
:101E7000089508956A98729A08952CB1860F911D5D
:101E800030E035952795359527952095309521702B
:101E90003327FC01208308950E943A0F1092D50148
:101EA0001092D40181E00E947D0F0E942C0F0895B2
:101EB000A1E0B0E0EEE5FFE00C94581D198260E06F
:101EC000CE0101960E943D0F9091D401898121E0BD
:101ED000981301C020E098138093D40141E065ED90
:101EE00071E084ED91E00E947E0F182F0E94300F68
:101EF000812F2196E3E00C94741D0895CF92DF9218
:101F0000EF92FF921F93CF93DF936C017B01122F0F
:101F1000222371F0C42FD0E0AE01BC01C7010E94A2
:101F2000801D892B71F0AE01B601C7010E948D1D85
:101F3000812FDF91CF911F91FF90EF90DF90CF9095
:101F4000089510E0F5CF0E94E30C08950E942C1430
:101F50000E9448160E94A20C0E9462160E94D60C93
:101F60000E946F160E9474160E94A30F0E948E1684
:101F70000E94B50CF7CF9093310180933001089502
:101F80000895ACE0B0E0E7ECFFE00C94591D4F83FE
:101F9000588769877A878B879C8786E0FE0137960A
:101FA000DE01119601900D928A95E1F729813A811F
:101FB0004B815C816D817E8180E090E02C96E2E037
:101FC0000C94751D21E030E001C0220F4A95EAF71C
:101FD000662311F0822B0895209582230895E091C5
:101FE0002801F091290109950E9429020E94C00F41
:101FF0000895CF936FEA71E086EB91E00E94C613DB
:10200000C82F882321F086EB91E00E944D13909118
:10201000B70186E0E6EBF1E0DF01282F1D922A955B
:10202000E9F79093B701AFEAB1E001900D928A957C
:10203000E1F781E0C11103C0911101C080E081701E
:10204000CF910895ACE0B0E0E8E2F0E10C94591DC6
:102050004F8358878B879C87719579876A8786E03D
:10206000FE013796DE01119601900D928A95E1F7F7
:1020700029813A814B815C816D817E8180E090E095
:102080002C96E2E00C94751DE0912A01F0912B0151
:102090004091B6015091B7016091B8017091B901BA
:1020A0008091BA019091BB010995F42FE52FCB01E6
:1020B0002093B6013093B701F093B801E093B901D2
:1020C0006093BA019093BB01A9016F2F7E2F0E94EC
:1020D0002210F42FE52FCB012093B6013093B701E6
:1020E000F093B801E093B9016093BA019093BB01FA
:1020F000A9016F2F7E2F0E941A012093B601309301
:10210000B7014093B8015093B9016093BA0170933D
:10211000BB010E94F90F811106C08091B501109298
:10212000B5018170089581E090E0F9CFE0912C0134
:10213000F0912D01099508959C01215D3109283008
:10214000310550F44FE2480F8091B7010E94E20F31
:102150008093B7010E94F90F0895ACE0B0E0E3EB83
:10216000F0E10C94571D4F8358878B879C87162F5F
:10217000072F0E943911811104C0911102C0902FC4
:10218000812F89879A8786E0FE013796DE011196B6
:1021900001900D928A95E1F729813A814B815C810A
:1021A0006D817E8180E090E02C96E4E00C94731DBC
:1021B0002C9808952C9A08953E98469898E080E0CF
:1021C0002F9825E02A95F1F7000026B126FB22275B
:1021D00020F9880F822B2F9A25E02A95F1F700002D
:1021E000915071F708953E9A27E030E090E02F98E3
:1021F000AC01022E02C0559547950A94E2F740FFC4
:102200000EC0469A4AE04A95F1F700C02F9A215035
:10221000310968F785E18A95F1F70000089546983D
:10222000F1CFCF93C82F0E94D8108C2F0E94F310AB
:102230000E94DC10C82F85E08A95F1F700000E940B
:10224000DA108C2FCF910895CF93DF93D82FC62F1C
:102250000E94D8108D2F80680E94F3108C2F0E944E
:10226000F3100E94DA10DF91CF91089587FD806806
:102270000895CF93DF930E94D81083E60E94F31055
:102280000E94DC10C82F0E94DC10D82F0E94DA10A8
:102290008C2F0E943611C82F8D2F0E943611982F37
:1022A0008C2FDF91CF910895279A3E9A249A6AE560
:1022B0008AE30E9424112FE78FEA92E021508040A8
:1022C0009040E1F700C000000E943911089561E0DC
:1022D0008D37910548F06DE0863D26E0920720F4A9
:1022E0006DE770E00E942F1D606189E10E9424115A
:1022F000089589E10E94111180712DE7829FC0012C
:1023000011240895CF93DF93EB0186319C4711F59B
:102310000E94B80A9D81992399F08A7A91E009F484
:1023200090E09093BC01811109C089E20E94AB1337
:102330000E94470B80E0DF91CF91089585E3F6CFAF
:102340008091BC01811104C089E20E94B313F0CFD7
:1023500085E3FBCF81E0EFCFCF93DF93EC01FB016F
:102360008581882309F4D2C09E013057233231057C
:1023700008F0B2C00E94C60B9093D3018093D201A3
:10238000FE01E150F047E232F10520F4E450F24E54
:102390000C94431D8091D20181608093D20193C03F
:1023A0008091D30188608093D3018DC08091D20148
:1023B0008260F3CF8091D2018460EFCF8091D2010F
:1023C0008860EBCF8091D3018160EDCF8091D30104
:1023D0008260E9CF8091D2018061DFCF8091D2010C
:1023E0008062DBCF8091D2018064D7CF0E944A0601
:1023F0008091D2018068D1CF8091D2018C60CDCF05
:102400008091D3018360CFCF8091D2018E7FC5CFE1
:102410008091D301877FC7CF8091D2018D7FBDCFBF
:102420008091D2018B7FB9CF8091D201877FB5CFC8
:102430008091D3018E7FB7CF8091D3018D7FB3CFB1
:102440008091D2018F7EA9CF8091D2018F7DA5CFBF
:102450008091D2018F7BA1CF0E944A068091D20148
:102460008F779BCF8091D201837F97CF8091D301CB
:102470008C7F99CF8091D20182FB992790F921E03E
:10248000922790FB82F990FB83F987CF8091D3014B
:10249000982F909591708E7F892B90FB81F983CF37
:1024A0009091D201892F8F7B96FF806476CF0E9416
:1024B0004A069091D201892F97FB87F980586DCFFA
:1024C00081E00E944C0C8091D2019091D3010E9436
:1024D000CB0B0E944A0680E0DF91CF91089580E007
:1024E000F0CF9091D201892F8F7E94FF806155CFDC
:1024F0009091D201892F8E7F90FF81604ECF909175
:10250000D301892F877F93FF88604DCF81E0E4CF8F
:102510000F931F93CF93DF93C42FD22FFC0185819C
:102520008823C9F04093BF010E9493149093BE0189
:102530008093BD0180E28C0F883040F4C77081E049
:1025400001C0880FCA95EAF70E941F04DF91CF915E
:102550001F910F9108951091BF01141332C0809103
:10256000BD019091BE010E94AB14883C910548F5D5
:10257000C0E2CD0F1D17B9F080E2810F883040F422
:10258000177081E001C0880F1A95EAF70E942604AF
:10259000C83048F481E09D2F977001C0880F9A954C
:1025A000EAF70E941F04802F0E941604C83070F6BC
:1025B000D77081E001C0880FDA95EAF70E942604FF
:1025C000C5CF80E28C0F883008F6C77081E001C06B
:1025D000880FCA95EAF7F2CF0F93DB0188519C4729
:1025E00087309105A0F5FC01E25EF14E0C94431D8D
:1025F00006E221EE41EE6AE17CE7CD010E948812FD
:1026000080E00F91089507E225EE45EE6BE17CE74F
:10261000F4CF06E221EE40EE68E17CE7EECF07E280
:1026200025EE44EE69E17CE7E8CF06E221EE42EEDA
:102630006CE17CE7E2CF07E225EE46EE6DE17CE758
:10264000DCCF08E221E045EE6EE17CE7D6CF1596BF
:102650008C91882319F01092BF01D3CF81E0D1CFA4
:102660009093C1018093C0010895E091C001F09161
:10267000C101309729F00190F081E02D099508956E
:1026800080E00895E091C001F091C101309721F000
:102690000280F381E02D09950895E091C001F09149
:1026A000C101309739F022E0DC012C930680F781DC
:1026B000E02D0995089540910A0150910B019A016E
:1026C0002E5F3F4F485F5F4F80E02417350709F4C6
:1026D0000895F90191919F019923B9F38F5FF5CF87
:1026E000882371F020910A0130910B01F901329693
:1026F000285F3F4F9191981729F0E217F307D1F720
:1027000080E0089581E008959C01FC0132969FEFDE
:1027100080E04191461751F09F3F19F4411101C0EB
:10272000982F8F5F8630A9F79F3F09F40895290FEE
:10273000311D97FD3A95F90162830895FC013296A7
:1027400008962191261303C0DF0111971C92E81708
:10275000F907B9F70895682F80910A0190910B014C
:102760000E9484130895682F80910A0190910B01B3
:102770000E949E130895E0910A01F0910B01329698
:1027800086E0DF011D928A95E9F70895DC01FB01DF
:1027900011969C9111978181981322C012968C9169
:1027A0001297882319F0928189131AC013968C917D
:1027B0001397882319F09381891312C015968C9171
:1027C0001597882319F0958189130AC014969C9156
:1027D000992321F081E02481291303C080E001C006
:1027E00081E08170089508950E94F3130895811186
:1027F00006C081E08093C2010E94F413089582E034
:10280000F9CF83E08093C2010E94F41308950E94DF
:10281000F713089581E08093C2010E94F413089594
:102820000E940A140895089508950E9414140895AA
:10283000089508950E94131408950E9418140E9488
:10284000580F0E94191480E00E94330F91E081110B
:1028500001C090E0892F089585B7806885BF85B74E
:10286000806885BF08951F921FB61F9211248F9311
:102870009F93AF93BF938091C301811113C0809147
:10288000D6019091D701A091D801B091D90141967C
:10289000A11DB11D8093D6019093D701A093D801BB
:1028A000B093D901BF91AF919F918F911F901FBE9F
:1028B0001F9018958091DE01843031F10E94290328
:1028C0001092C30188E190E020E40FB6F894A89537
:1028D000809360000FBE2093600083B7817F846087
:1028E00083BF83B7816083BF7894889583B78E7FD9
:1028F00083BF0FB6F894A89580916000886180939B
:102900006000109260000FBE08950E944A060E9467
:102910003003089582E084BD93E095BD9AEF97BDA2
:1029200080936E0008952FB7F8948091D60190910E
:10293000D701A091D801B091D9012FBF08952FB729
:10294000F8946091D6017091D7018091D80190914F
:10295000D9012FBF08959C014FB7F8948091D601FB
:102960009091D701A091D801B091D9014FBF821B9E
:10297000930B089578941F921FB61F9211248F9382
:102980009F93AF93BF938091D6019091D701A0916F
:10299000D801B091D9010196A11DB11D8093D60136
:1029A0009093D701A093D801B093D901BF91AF9173
:1029B0009F918F911F901FBE1F90189581E080936B
:1029C000E00080E28093D8001092C9008FE19EE47D
:1029D0000197F1F700C0000087E090EBDC018093E5
:1029E000E7019093E801A093E901B093EA0188E13F
:1029F0009CE00FB6F894A895809360000FBE90936A
:102A00006000FFCF88E19CE00FB6F894A895809312
:102A100060000FBE90936000FFCF8091CC010895BD
:102A2000089508959B01BA019091DE019430E9F474
:102A30008F708093E9009FEF8091E800915085FDB1
:102A400006C085ED8A95F1F700009111F5CF8091D0
:102A5000E80085FF0AC050E040E0C9010E94051768
:102A60008091E8008E778093E800089546E050E07A
:102A7000BC0182E00E9412150895CF93DF93EC0110
:102A800048E050E0BC0181E00E94121588E0FE01A0
:102A9000A4ECB1E001900D928A95E1F7DF91CF911E
:102AA00008958091DD01811109C00E9495180E944E
:102AB000F2188091E20084608093E2000895109201
:102AC000DD0108950E940A1408956091DA0181E001
:102AD000611101C080E00E94011408959091DE010F
:102AE00081E0943009F080E06091DA010E940714DF
:102AF000089542E061EC81E00E94111842E261EC2D
:102B000082E00E9411189091DE0181E0943009F07A
:102B100080E06091DA010E94F71308958091E0014E
:102B2000833009F461C030F48130D1F1823009F48E
:102B30009EC008958A3009F48AC08B3009F46FC0B2
:102B4000893009F050C08091DF01813209F04BC01B
:102B50008091E3019091E401029708F044C08091D4
:102B6000E800877F8093E8008091E80082FF37C00B
:102B70009091F3008091F200029731F48091F1007E
:102B8000813011F0863021F48091F1008093CC01E6
:102B90008091E8008B778093E8000E94451823C05D
:102BA0008091DF01813AF9F48091E800877F80937A
:102BB000E8008091E3019091E401892B61F468E0E1
:102BC00084EC91E070E00E9454178091E8008B77CC
:102BD0008093E800089560E090E080E0F3CF80917A
:102BE000DE018111C1CF08958091DF01813AD9F7CB
:102BF0008091E3019091E401892BA9F78091E8008D
:102C0000877F8093E8008091E80080FFFCCF80916F
:102C100016018093F1008091E8008E77BCCF8091FF
:102C2000DF01813201F78091E3019091E401892B6A
:102C3000D1F68091E800877F8093E8000E944518D4
:102C40008091E101809316010E944A0608958091C7
:102C5000DF01813241F68091E800877F8093E800B0
:102C60000E9445188091E2018093CD0108958091E2
:102C7000DF01813A09F0B7CF8091E800877F809328
:102C8000E8008091E80080FFFCCF8091CD01C1CFAA
:102C900084B7877F84BF0FB6F894A89580916000B1
:102CA000886180936000109260000FBE80E890E021
:102CB0000FB6F89480936100909361000FBE0E945C
:102CC000101408950E9495180E94F218E2EEF0E0A8
:102CD00080818460808378940E94711B08958CE0C9
:102CE00091E00E94301308958091DE01853031F427
:102CF0008091DE01853019F00E94851408950E94AC
:102D00005A140E941D14882399F38091DC018823B2
:102D100079F30E94EF160E944A06EACF08959A01BD
:102D20004091E5015091E6010E9497160895492FC0
:102D300055274330510519F168F44130510509F424
:102D400044C04230510509F445C090E080E050E0B5
:102D500040E025C04132510549F142325105A9F701
:102D600084E490E04CE751E061157105C1F089E41D
:102D700090E043E351E06130710589F0E6CF992797
:102D80008130910581F0009729F00297F1F6EEEA83
:102D9000F0E002C0E2EEF0E0849190E0AF01F901D2
:102DA000518340830895EEECF0E0F6CF89E090E0A7
:102DB00048EF50E06115710591F389E090E041E141
:102DC00051E06130710559F3C0CF82E190E041E2FA
:102DD00051E0E5CF8BE390E046EE50E0E0CF80E1BC
:102DE00089BD82E189BD09B400FEFDCF8091D80084
:102DF0008F7D8093D8008091E00082608093E00016
:102E00008091E00081FDFCCF0895AF92BF92CF92F8
:102E1000DF92FF920F931F93CF93DF936C01EB012F
:102E20008A010E946418F82E811123C00115110532
:102E300039F0F80180819181C81BD90BC80ED91EC9
:102E4000B12CA12C2097A9F08091E80085FD22C02B
:102E50008091E8008E778093E80001151105A1F0BC
:102E6000F80180819181A80EB91EB182A08285E00F
:102E7000F82E8F2DDF91CF911F910F91FF90DF9052
:102E8000CF90BF90AF9008950E9464188823D1F22C
:102E9000F82EEFCFF60181916F018093F100219719
:102EA000FFEFAF1ABF0ACECFFC018091E5019091F0
:102EB000E60186179707A0F06115710529F4909136
:102EC000E8009E779093E80090E06115710551F459
:102ED000911108C08091E80082FF34C080E008951D
:102EE000BC01F2CF8091DE018823C1F18530C1F1B0
:102EF0008091E80083FD30C08091E80082FDEACF38
:102F00008091E80080FFE1CF8091F3002091F200F2
:102F1000382F6115710519F02830310558F091E00E
:102F20002830310509F090E02091E8002E772093B9
:102F3000E800CBCF81918093F100615071092F5F40
:102F40003F4FE7CF8091DE01882341F0853041F08B
:102F50008091E80083FFBECF81E0089582E008956C
:102F600083E00895FC018091E5019091E6018617C8
:102F70009707A0F06115710529F48091E8008E771C
:102F80008093E80090E06115710551F4911108C03B
:102F90008091E80082FF35C080E00895BC01F2CF47
:102FA0008091DE018823C9F18530C9F18091E80064
:102FB00083FD31C08091E80082FDEACF8091E80076
:102FC00080FFE1CF8091F3002091F200382F61154E
:102FD000710519F02830310558F091E0283031059D
:102FE00009F090E08091E8008E778093E800CBCFE5
:102FF00084918093F1003196615071092F5F3F4FAA
:10300000E6CF8091DE01882341F0853041F0809148
:10301000E80083FFBDCF81E0089582E0089583E05A
:103020000895982F973028F08F708093E90081E001
:1030300008959093E900242F762F50E0981731F0EF
:103040007091EC002091ED005091F00021FD02C044
:103050009F5FE8CF3091EB003E7F3093EB003091E3
:10306000ED003D7F3093ED003091EB003160309307
:10307000EB007093EC002093ED005093F000209152
:10308000EE0027FDE5CF80E008958091DF0187FF06
:1030900013C08091E80082FF06C08091E8008B7722
:1030A0008093E80004C08091DE018111F2CF089581
:1030B0008091DE018823D9F38091E80080FFF8CF6A
:1030C0008091E8008E77ECCF2091E4003091E5000C
:1030D00095E6A9012091EC00822F817020FF06C0A7
:1030E0008091E80080FF06C080E008952091E8000C
:1030F00022FD1AC08091DE01882389F0853089F095
:103100008091EB0085FD0FC02091E4003091E50037
:1031100042175307F9F29150E1F684E0089582E0F6
:10312000089583E0089581E008950E9404190E94A3
:103130000C19E0EEF0E0808181608083E8EDF0E042
:1031400080818F77808319BCA7EDB0E08C918E7F52
:103150008C9380818F7E80831092DD0108950F9380
:103160001F93CF93DF930E9404190E940C19C8ED9E
:10317000D0E088818F778883888180688883888180
:103180008F7D888319BC1092DE011092DA011092B3
:10319000DC011092DB0100EE10E0F80180818B7FF2
:1031A000808388818160888342E060E080E00E94C3
:1031B0001118E1EEF0E080818E7F8083E2EEF0E096
:1031C000808181608083808188608083F801808134
:1031D0008E7F8083888180618883DF91CF911F916A
:1031E0000F910895E8EDF0E080818F7E8083E7ED18
:1031F000F0E080818160808384E082BF81E0809301
:10320000DD010E94AF180895E8EDF0E080818E7F27
:1032100080831092E20008951092DA001092E1008B
:1032200008951F920F920FB60F9211242F933F9380
:103230004F935F936F937F938F939F93AF93BF93BE
:10324000EF93FF938091E10082FF0BC08091E20039
:1032500082FF07C08091E1008B7F8093E1000E9494
:10326000701B8091DA0080FF19C08091D80080FF28
:1032700015C08091DA008E7F8093DA008091D900AA
:1032800080FF96C080E189BD82E189BD09B400FE5E
:10329000FDCF81E08093DE010E9451158091E10015
:1032A00080FF19C08091E20080FF15C08091E2008C
:1032B0008E7F8093E2008091E20080618093E20043
:1032C0008091D80080628093D80019BC85E08093FB
:1032D000DE010E9465158091E10084FF2BC0809182
:1032E000E20084FF27C080E189BD82E189BD89B504
:1032F000982F917080FFFBCF8091D8008F7D8093B5
:10330000D8008091E1008F7E8093E1008091E200FF
:103310008F7E8093E2008091E20081608093E200E2
:103320008091DA01882309F449C084E08093DE01AA
:103330000E946E158091E10083FF29C08091E20018
:1033400083FF25C08091E100877F8093E10082E0C8
:103350008093DE011092DA018091E1008E7F8093EC
:10336000E1008091E2008E7F8093E2008091E20094
:1033700080618093E20042E060E080E00E941118EA
:103380008091F00088608093F0000E946215FF91A8
:10339000EF91BF91AF919F918F917F916F915F91CD
:1033A0004F913F912F910F900FBE0F901F90189546
:1033B00019BC1092DE010E945F1570CF8091E3006E
:1033C00087FD93E09093DE01B3CF1F920F920FB66B
:1033D0000F9211242F933F934F935F936F937F939B
:1033E0008F939F93AF93BF93CF93DF93EF93FF930D
:1033F000D091E900DF708091EC00C82FC17080FD92
:10340000C0E81092E9008091F000877F8093F0007F
:1034100078940E94291A1092E9008091F000886047
:103420008093F000CD2BCF70C093E900FF91EF9116
:10343000DF91CF91BF91AF919F918F917F916F91CC
:103440005F914F913F912F910F900FBE0F901F9062
:103450001895AAE2B0E0EFE2FAE10C94581D8FED66
:1034600091E02091F100FC012193CF01F1E0873E32
:103470009F07B9F70E948E158091E80083FF1EC157
:103480008091DF019091E0019A3008F017C1E92F97
:10349000F0E0EB5DF14E0C94431D803899F08238DA
:1034A00009F00CC18091E3018F70873008F006C1EC
:1034B0008093E9008091EB0085FB882780F91092CA
:1034C000E90006C08091DB019091DC0191118260DE
:1034D0009091E800977F9093E8008093F10010921C
:1034E000F1008091E8008E77E5C0882309F4D3C00D
:1034F000823009F0E3C08091E1018111D6C0809152
:10350000E3018F702FEF280F263008F0D7C080938B
:10351000E9002091EB0020FFC8C0933031F4809186
:10352000EB0080628093EB00C0C09091EB00906153
:103530009093EB0021E030E001C0220F8A95EAF77A
:103540002093EA001092EA008091EB008860EACFB5
:103550008111B4C01091E1011F778091E300807860
:10356000812B8093E3008091E800877F8093E800BF
:103570000E9445188091E80080FFFCCF8091E30015
:1035800080688093E30082E0111183E08093DE0184
:1035900095C08058823008F091C08091E1019091EF
:1035A000E2018C3D23E09207A1F583E08A838AE261
:1035B00089834FB7F894DE01139620E03EE051E294
:1035C000E32FF0E050935700E49120FF03C0E29511
:1035D000EF703F5FEF708E2F90E0EA30C0F0C7963B
:1035E0008D939D932F5F243159F74FBF8091E80051
:1035F000877F8093E8006AE270E0CE0101960E9426
:1036000054178091E8008B778093E80057C0C096EC
:10361000E7CF6091E3017091E401AE014F5F5F4F2E
:103620000E948F16BC01892B09F448C09091E800D4
:10363000977F9093E80089819A810E94B217E1CF29
:103640008038E1F58091E800877F8093E8008091E1
:10365000DA018093F10045CF811130C09091E101F2
:10366000923060F58091E800877F8093E800909326
:10367000DA010E9445188091DA01882311F084E074
:1036800005C08091E30087FDFACF81E08093DE01E1
:103690000E94791513C08091E101813079F481E0B5
:1036A000933009F080E08093DC011092E900809172
:1036B000E800877F8093E8000E9445188091E80029
:1036C00083FF0AC08091E800877F8093E8008091A3
:1036D000EB0080628093EB00AA96E3E00C94741DEB
:1036E0000895CF938091DE018823A1F0C091E90075
:1036F000CF709091EC00892F817090FD80E8C82BED
:103700001092E9008091E80083FD0E94291ACF7091
:10371000C093E900CF9108955058BB27AA270E9473
:10372000A41B0C94F51C0E94E71C38F00E94EE1CB0
:1037300020F039F49F3F19F426F40C94E41C0EF4A5
:10374000E095E7FB0C94DE1CE92F0E94061D58F360
:10375000BA17620773078407950720F079F4A6F576
:103760000C94281D0EF4E0950B2EBA2FA02D0B0102
:10377000B90190010C01CA01A0011124FF27591BB6
:1037800099F0593F50F4503E68F11A16F040A22FBC
:10379000232F342F4427585FF3CF4695379527952D
:1037A000A795F0405395C9F77EF41F16BA0B620B2C
:1037B000730B840BBAF09150A1F0FF0FBB1F661F73
:1037C000771F881FC2F70EC0BA0F621F731F841FB6
:1037D00048F4879577956795B795F7959E3F08F0DC
:1037E000B0CF9395880F08F09927EE0F979587959E
:1037F00008950E940D1C0C94F51C0E94EE1C58F0BC
:103800000E94E71C40F029F45F3F29F00C94DE1C75
:1038100051110C94291D0C94E41C0E94061D68F3A0
:103820009923B1F3552391F3951B550BBB27AA2779
:1038300062177307840738F09F5F5F4F220F331FB3
:10384000441FAA1FA9F335D00E2E3AF0E0E832D07B
:1038500091505040E695001CCAF72BD0FE2F29D07E
:10386000660F771F881FBB1F261737074807AB0750
:10387000B0E809F0BB0B802DBF01FF2793585F4FC5
:103880003AF09E3F510578F00C94DE1C0C94291DF3
:103890005F3FE4F3983ED4F3869577956795B795A7
:1038A000F7959F5FC9F7880F911D9695879597F9B2
:1038B0000895E1E0660F771F881FBB1F621773072B
:1038C0008407BA0720F0621B730B840BBA0BEE1F40
:1038D00088F7E09508950E94721C6894B1110C94C9
:1038E000291D08950E940E1D88F09F5798F0B92F4A
:1038F0009927B751B0F0E1F0660F771F881F991F25
:103900001AF0BA95C9F714C0B13091F00E94281D81
:10391000B1E008950C94281D672F782F8827B85F91
:1039200039F0B93FCCF3869577956795B395D9F77C
:103930003EF490958095709561957F4F8F4F9F4F86
:103940000895E89409C097FB3EF490958095709592
:1039500061957F4F8F4F9F4F9923A9F0F92F96E9DB
:10396000BB279395F695879577956795B795F11150
:10397000F8CFFAF4BB0F11F460FF1BC06F5F7F4FED
:103980008F4F9F4F16C0882311F096E911C07723FF
:1039900021F09EE8872F762F05C0662371F096E808
:1039A000862F70E060E02AF09A95660F771F881FD7
:1039B000DAF7880F9695879597F9089597F99F6795
:1039C00080E870E060E008959FEF80EC08950024A7
:1039D0000A941616170618060906089500240A9474
:1039E00012161306140605060895092E0394000CFA
:1039F00011F4882352F0BB0F40F4BF2B11F460FF89
:103A000004C06F5F7F4F8F4F9F4F089557FD9058B1
:103A1000440F551F59F05F3F71F04795880F97FB92
:103A2000991F61F09F3F79F087950895121613064C
:103A30001406551FF2CF4695F1DF08C0161617067B
:103A40001806991FF1CF86957105610508940895B0
:103A5000E894BB2766277727CB0197F90895AA1B1F
:103A6000BB1B51E107C0AA1FBB1FA617B70710F069
:103A7000A61BB70B881F991F5A95A9F7809590959B
:103A8000BC01CD010895EE0FFF1F0590F491E02DCC
:103A900009942F923F924F925F926F927F928F92F2
:103AA0009F92AF92BF92CF92DF92EF92FF920F93CD
:103AB0001F93CF93DF93CDB7DEB7CA1BDB0B0FB6D7
:103AC000F894DEBF0FBECDBF09942A883988488894
:103AD0005F846E847D848C849B84AA84B984C8842A
:103AE000DF80EE80FD800C811B81AA81B981CE0F21
:103AF000D11D0FB6F894DEBF0FBECDBFED01089506
:103B0000FB01DC0104C08D910190801921F441502A
:103B10005040C8F7881B990B0895FB01DC0102C0D7
:103B200001900D9241505040D8F70895F999FECF79
:103B300092BD81BDF89A992780B50895A6E1B0E0BD
:103B400044E050E00C94E01DA8E1B0E042E050E019
:103B50000C94E01DDC01A40FB51F4150504048F00B
:103B6000CB01840F951F2E910E94BB1D41505040E8
:103B7000D0F70895262FF999FECF92BD81BDF89A0E
:103B8000019700B4021639F01FBA20BD0FB6F894A1
:103B9000FA9AF99A0FBE08950396272F0E94BB1D2B
:103BA0000E94BA1D252F0E94BB1D242F0C94BB1D03
:103BB0000196272F0E94BB1D0C94BA1DDC01CB017E
:103BC000FC01F999FECF06C0F2BDE1BDF89A31962D
:103BD00000B40D9241505040B8F70895F894FFCFCB
:103BE0006E046E04BE04BE049D0423059D049D0462
:103BF00028059905A805A805041278120C12D611FB
:103C0000DA111012DE1114122012EA117112EE11E3
:103C10002412F21128125012F6112C125712FC1114
:103C200032123A12E2111812E6111C120012361268
:103C3000461260126F12D01108127F1209130F136F
:103C4000F812031315131B1321134D1A751A5E1B5B
:0E3C5000751A5E1BA81AC91A5E1B201B2C1BBE
:103C5E0058028403B0044006600995010D153D1508
:103C6E00111536151015013536679091929394956E
:103C7E009697C6F1F3F5F6F75411AD106711791159
:00000001FF
