:100000000C94E0000C9418010C9418010C94180145
:100010000C9418010C9418010C9418010C941801FC
:100020000C9418010C9418010C9418190C94EC19E8
:100030000C943A140C9418010C9418010C941801A7
:100040000C9418010C9418010C9418010C941801CC
:100050000C9418010C94C1140C9418010C94180100
:100060000C9418010C9418010C9418010C941801AC
:100070000C9418010C9418010C9418010C9418019C
:100080000C9418010C9418010C9418010C9418018C
:100090000C9418010C9418010C9418010C9418017C
:1000A0000C9418010C9418010C941801017E1E0385
:1000B00054007200610063006B00620061006C001C
:1000C0006C0020004E0061006E006F000000120303
:1000D00050006C006F006F007000790043006F00EB
:1000E00000000403090409023B00020100A03209D8
:1000F0000400000103010100092111010001224453
:100100000007058103080001090401000103000044
:100110000009211101000122490007058203200086
:100120000112010002000000084350A35401000125
:1001300002000105010902A10185020901A10005D2
:100140000919012908150025019508750181020585
:1001500001093009311581257F950275088106094D
:10016000381581257F950175088106050C0A38022E
:100170001581257F950175088106C0C00501090616
:10018000A101050719E029E715002501950875016A
:1001900081029501750881010507190029FF1500E5
:1001A00026FF009506750881000508190129051527
:1001B000002501950575019102950175039101C016
:1001C00011241FBECFEFDAE0DEBFCDBF04B603FEC1
:1001D00018C08091E7019091E801A091E901B091E8
:1001E000EA018730904BA740B04B59F41092E701D9
:1001F0001092E8011092E9011092EA01E0E0F8E3C0
:10020000099511E0A0E0B1E0E2E6FCE302C0059050
:100210000D92A033B107D9F721E0A0E3B1E001C00E
:100220001D92A73EB207E1F70E94AD0F0C94F01D9E
:100230000C940000ACE0B0E0E0E2F1E00C94511D61
:100240004F8358878B879C87172F80913A0188238B
:1002500009F46AC0062E000C770B880B990B0E94DC
:10026000381C20E030E040E05EE30E94C41C209196
:1002700036013091370140913801509139010E9487
:10028000941B4B015C01612F110F770B880B990BAD
:100290000E94381C20E030E040E05EE30E94C41C75
:1002A0002091320130913301409134015091350158
:1002B0000E94941B6B017C01C501B4010E94001CCB
:1002C000062F6C87C701B6010E94001C162F6B8792
:1002D000602F000F770B880B990B0E94381C9B0135
:1002E000AC01C501B4010E94931B60933601709369
:1002F00037018093380190933901612F110F770BEB
:10030000880B990B0E94381C9B01AC01C701B601F8
:100310000E94931B609332017093330180933401E8
:100320009093350110E060E04F815885712F8B85E7
:100330009C850E94C80F80E090E02C96ECE00C9425
:100340006D1D0F931F93CF93DF938C01EB010E94E0
:100350005F02882339F101159EE7190741F5CD8128
:10036000CC2301F18091CE0190E0019665E070E030
:100370000E94311D8093CE016091CE017091CF011A
:100380008091D0019091D1010E94DD0BE091CE01CE
:10039000F0E0EE0FFF1FE050FF4F808191810E943F
:1003A0009D108C2FDF91CF911F910F9108950130F7
:1003B0001E47C1F79D819923A9F380913A0121E05D
:1003C000822780933A01892FEDCFA1E1B0E0EBEED7
:1003D000F1E00C94591D81E1E7E1F1E0DE011196B5
:1003E00001900D928A95E1F7FE013196AE014E5EC5
:1003F0005F4F61E070E08191A82FA295AF70B0E0EF
:1004000091962C9191978F708B0102C0000F111F54
:100410008A95E2F7C801922F982B91969C93919719
:1004200092969C9192978095892392968C934E17E1
:100430005F0709F70E94A30C6196E4E00C94751D18
:1004400081E08093CE016091CE017091CF018091C7
:10045000D0019091D1010E94DD0B0E94EB0B089519
:100460000E94D80B6093CE017093CF018093D0018E
:100470009093D101663010F00E942002E091CE01ED
:10048000F0E0EE0FFF1FE050FF4F808191810E944E
:100490009D100895642B682B29F4ECEAF0E0859117
:1004A0009491089581E090E008950E944A02089591
:1004B00081E008950E945802089581E008950E9405
:1004C0005802089508950E9462020895A6E0B0E0DF
:1004D000ECE6F2E00C945A1D49835A839E833091D6
:1004E000400189819A8131111AC03E81332399F0EC
:1004F000222389F00E949207182F682F89819A8100
:100500000E947C0769817A81812F0E94310E269694
:10051000E3E00C94761D0E948707182FF3CF0E940A
:10052000920769817A81F1CFFC01262F40815181A8
:1005300062817381848195810E9466020895CF93C0
:10054000DF93EC0161E00E949402BE010E945A0216
:10055000DF91CF910895CF93DF93EC0160E00E948B
:100560009402BE010E946302DF91CF91089581E061
:1005700008950E94B7020895CF93C82F0E94510694
:100580008C2F0E94B9022FEF84E39CE02150804021
:100590009040E1F700C00000CF91089581E00E94F3
:1005A000BC020E94E514089580E00E94BC020E94F3
:1005B000091508950F931F93CF93DF938C0161E08A
:1005C0000E949402EC01B8010E94A101811106C0B1
:1005D00080E0DF91CF911F910F910895B801CE0176
:1005E0000E94F3128823A1F3B801CE010E94B31137
:1005F000882371F3B801CE010E948911882341F349
:10060000F8018581882361F0C330FCE7DF07E9F05A
:1006100058F4C115ECE7DE07A9F0C130DC47B9F0AA
:10062000C8010E945D02D5CFCB358CE7D807A9F071
:10063000CC35ECE7DE0771F0CA35DC4789F70E945C
:10064000A90BEECF0E94CE02C3CF0E94B10B0E9435
:10065000D402BECF0E949F0BE3CF0E94AD0BE0CF30
:100660000E941C140E9452030E944B1008950E9485
:1006700056030E942114089581E008950895CF93B0
:10068000DF93D82F0E943C03C82F882319F08D2FA9
:100690000E943E038C2FDF91CF91089508950E9410
:1006A0003F03089580E00E944F0308950E943C1389
:1006B0000E944F030895CF930E943C13C82F80914E
:1006C0003B018C1779F0C0933B010E94A614609304
:1006D0003C0170933D0180933E0190933F018C2F2C
:1006E0000E944F03CF910895ADE0B0E0EAE7F3E058
:1006F0000C945B1D488759876A877B878C879D8709
:1007000091110E94DF0A1F8286E0FE013896DE0109
:10071000119601900D928A95E1F78D8181110DC09E
:1007200029813A814B815C816D817E818F810E941C
:10073000290A2D96E2E00C94771DCE0101960E94C5
:100740009F028111EDCFF5CFFC012481213021F4EE
:10075000808191810E94C407089593E3980F93319B
:1007600018F490E00E94A3100895CF93C82F882317
:1007700099F08CEF8C0F813A88F48C2F0E947713BC
:10078000882329F08C2F0E94BA130E944E0B8C2FC5
:100790000E94B2130E944E0BCF91089580E28C0FFD
:1007A000883048F4C77081E001C0880FCA95EAF725
:1007B0000E94C20AEFCF83E38C0F833168F761E0B8
:1007C0008C2F0E94AD03E8CF8823F1F09CEF980FA7
:1007D000913A28F40E94BA130E944E0B089590E2B9
:1007E000980F983050F4877091E001C0990F8A9566
:1007F000EAF7892F0E94C80AEFCF93E3980F93314D
:1008000018F460E00E94AD0308951F93CF93DF9327
:10081000182FEB010E94B503209739F4812F0E9415
:10082000E403DF91CF911F9108958FE99FE0019735
:10083000F1F700C000002197EFCF70E060E089334E
:1008400011F460E570E00E9405040895882321F00A
:100850000E94C20A0E944E0B0895882321F00E9434
:10086000C80A0E944E0B0895B0E0A0E0EAE3F4E06D
:100870000C94541D6C01D62FC72FFC0115810681E5
:1008800002950F700E94B80AE82E8823F9F0E12E35
:100890001123E1F08C2F807F803461F080E28D0F96
:1008A000883008F18C2F807E803221F4D230D8F04D
:1008B0000023C9F08091D30182FF15C082E00E941D
:1008C000730B0E94B80A91E0E82EE926BC2EB29480
:1008D0009FE0B922FBE0FB15B8F1EB2DF0E0EE5004
:1008E000F24E0C94451DE12CF1CF0C2F0F70C07F00
:1008F00011F00295007F112399F0002359F080E256
:100900008D0F883010F0D11107C0802F0E94C20ACD
:100910000E944E0B8D2F5AC0802F0E94D20AF8CF12
:100920008D2F0E94E403002379F080E28D0F883040
:1009300010F0D11104C0802F0E94C80A03C0802F7C
:100940000E94D80A0E944E0BEB2DE850FF0B349703
:1009500020F40E943C130E944F03EE2089F00E9475
:10096000B40A80FD0DC0F60115820E94AE0A0E94F5
:10097000DA06C6010E9424060E94AE0A0E94EA0618
:10098000CDB7DEB7E9E00C94701D2C2F2F70F22E3E
:10099000C07FC03219F0F29480EFF822DD2341F0DD
:1009A000D130D1F1112309F444C00023F1F0B2CFCA
:1009B0008091D30182FD15C0112359F0FF2029F049
:1009C0008F2D0E94C20A0E944E0B80E00E94B50348
:1009D000BBCF80E00E94E403FF2009F4B5CF8F2D48
:1009E000ABCF112369F0011104C08F2D0E942604A2
:1009F000ABCF013009F0A8CF8F2D0E94F60AA4CF0B
:100A00000111A2CF8F2D0E942D048F2D0E94020B69
:100A10008F2D0E94E60A98CF112321F0063008F0AE
:100A200093CFE3CF053008F08FCF8F2D0E942D0498
:100A30008BCF0023D1F3D93349F43FEF87EE93E016
:100A4000315080409040E1F700C000008D2F0E949F
:100A5000E4037ACF612F8D2F0E94AD0375CF8C2FC9
:100A60008370A1F5111170CF4D2F429546954770B7
:100A7000440F440F2D2F2F7030E0042E02C0220FA0
:100A8000331F0A94E2F790E080E0D4FF09C08FE0C2
:100A900090E002C0880F991F4A95E2F780959095E3
:100AA000C695C695C370822B932BC23049F058F47B
:100AB000C13019F00E94AA0647CF0E94A10644CF78
:100AC0000E94B30641CF0E949E063ECF8695112319
:100AD00011F08C2F8170882309F436CF4D2F429569
:100AE00046954770440F440F2D2F2F7030E0042E91
:100AF00002C0220F331F0A94E2F790E080E0D4FF97
:100B000009C08FE090E002C0880F991F4A95E2F774
:100B100080959095C695C695C370822B932BC23055
:100B200049F058F4C13019F00E9415070DCF0E940A
:100B30000C070ACF0E941E0707CF0E94C20604CFEF
:100B4000CF70112329F08C2F0E94DA068D2F4ECF03
:100B50008D2F0E942D048C2F0E94EA06F5CED23FE5
:100B600041F160F4D03FB9F0D13F81F0112309F495
:100B700043C00111CFCE8C2F8F711FC0D33F01F125
:100B8000D43FA1F78091D30182FD24C08C2F8F71B7
:100B9000112311F312C0112341F0053008F0D4CE17
:100BA0008C2F8F710E94FC06CFCE063008F0CCCE81
:100BB000F7CF8C2F8F711111CFCF0E94DA06C4CEE0
:100BC000112329F08C2F8F710E94CE06BDCE0E947A
:100BD000C906BACE112331F063E08C2F8F710E94C9
:100BE000550BB2CE81E00E94730B023008F4ACCEFC
:100BF00082E00E94730BA8CE002359F0D93309F08C
:100C000025CFEFEFF7EE23E0E150F0402040E1F791
:100C10001BCF8C2F8F71A0CF0F931F93CF93DF9398
:100C2000EC01688179818D810E94CF078C010E943F
:100C300027070E949D06B801CE010E943404DF916F
:100C4000CF911F910F910895CF93DF93EC018C8189
:100C5000882399F0CE010E94DA02811111C00E940E
:100C6000B80A882351F08D81882339F08091D3010F
:100C700082FF03C082E00E94730BDF91CF91089541
:100C8000CE010E940C06CE010E94AB02F6CF0E945C
:100C9000DF0A0E944E0B08950E94C2130E9447066D
:100CA00008950E94CF0A0E944C06089592959F7065
:100CB000963091F058F4925F9F70923058F4803FD4
:100CC00019F030F4883E30F481E008959A5FF4CF53
:100CD000843FD1F380E00895883EB0F3813FD1F79F
:100CE000F3CFFC012481222339F0808191810E947D
:100CF000C4070E945606089580E00895A6E0B0E07B
:100D0000E4E8F6E00C945B1D2696E2E00C94771D77
:100D1000A7E0B0E0EEE8F6E00C945B1D2796E2E079
:100D20000C94771D08950E94920608950E949306E0
:100D30009093480180934701089508950E94960674
:100D400008952091470130914801822B932B0E94F6
:100D500096060895209147013091480182239323FC
:100D60000E949606089520914701309148018227FC
:100D700093270E94960608950E94920608950E9465
:100D8000BC0608950E94BF069093460180934501DA
:100D9000089590E080E00E94C206089521E030E0CE
:100DA000A90102C0440F551F8A95E2F7CA010E94AB
:100DB000C206089521E030E002C0220F331F8A9559
:100DC000E2F78091450190914601822B932B0E947E
:100DD000C206089521E030E002C0220F331F8A9539
:100DE000E2F720953095809145019091460182234C
:100DF00093230E94C206089521E030E002C0220F32
:100E0000331F8A95E2F78091450190914601822730
:100E100093270E94C2060895209145013091460112
:100E2000822B932B0E94C206089520914501309198
:100E30004601822393230E94C20608952091450112
:100E400030914601822793270E94C2060895089593
:100E5000262F277091E001C0990F2A95EAF723E029
:100E6000769567952A95E1F7660F771F660F771FCE
:100E7000FA01E60FF71F50E040E0682F70E0819123
:100E8000DF0111979B01042E02C0369527950A9425
:100E9000E2F7217021952827292328272C934F5FDB
:100EA0005F4F4430510559F70895A82FA77023E0EC
:100EB000969587952A95E1F7880F991F880F991FB6
:100EC000FB01E80FF91F50E040E080E0219130E0A5
:100ED0000A2E02C0369527950A94E2F7217033272F
:100EE000042E01C0220F0A94EAF7822B4F5F5F4F56
:100EF0004430510559F70895262F892B39F441E4E0
:100F000051E070E060E0822F0E9428070895892B4D
:100F100039F461E471E090E080E00E9455070895A3
:100F200080E00895B0E0A0E0E8E9F7E00C94541DFB
:100F30007C010091450110914601809147019091FB
:100F40004801082B192BCFE0D0E0CC24C394D12C3E
:100F5000BC2EC6010C2E02C0880F991F0A94E2F71E
:100F600080239123892B49F4219790F7B12C8B2D65
:100F7000CDB7DEB7E9E00C94701DB7018C2F0E944D
:100F80003A0E019789F3F3CFCF93DF93EC010E94E0
:100F90009207BE010E943A0EDF91CF9108951F93F0
:100FA000CF93DF93EB0190914001992339F0CB016E
:100FB0000E94C407DF91CF911F910895882369F0A3
:100FC000CB010E949207182F682FCE010E947C0748
:100FD000BE01812F0E943A0EEDCFCB010E94870700
:100FE000182FF6CF1F93CF93DF93C091490117E0DD
:100FF00080914A018C1304C0DF91CF911F91089515
:10100000D0E01C9FF0011D9FF00D1124E55BFE4F09
:1010100020813181428153816481758186810E9462
:1010200088062196C770E4CF209183013091840116
:1010300040918501509186016091870170918801EE
:10104000809189010E9488060895CF93DF93809153
:101050008901807F09F04DC080918801882309F4BF
:1010600048C0E091490150914A01C0918401D0915A
:101070008301609185017091860147E05E17C9F197
:101080008E2F90E0E49FF0011124E55BFE4F248158
:10109000222391F1489FF001499FF00D1124DF01B7
:1010A000A55BBE4F11962C9111972C1325C02C9146
:1010B0002D1322C015962C91159721111DC0129643
:1010C0002D913C91261B370B283C3105A8F48091CB
:1010D00089018F70806180938901EF5AFE4F808172
:1010E0008F708061808383E891E00E9424060E94D3
:1010F000F207DF91CF910895FC013196E770BECFE2
:10110000482F2091490190914A0157E0291302C0CC
:1011100080E0089530E0529FF001539FF00D1124BC
:10112000E55BFE4F8181681306C08081481303C0D0
:1011300085818111EECF2F5F3F4F2770E7CFA4E16C
:10114000B0E0E5EAF8E00C94511D8C0186E0F8016E
:10115000DE011F9601900D928A95E1F7F8018481D6
:10116000E58093E8A92E91E0B92E90918701911125
:101170001FC08823D1F0EE20A9F0C8010E9471069B
:10118000F82E882379F087E0F801D50101900D92BF
:101190008A95E1F7C5010E94A4030E9425080E94D8
:1011A00014085FC0C8010E942406FF24F39459C0AC
:1011B000C080D18082809380F09088012091850149
:1011C00030918601A401421B530BFF2009F4F9C0A2
:1011D000483C510508F0A7C0882309F442C090910B
:1011E000840180918901282F207F09F05CC09D1126
:1011F00016C090918301C91212C0E1104EC08F70C9
:101200008061809389010E94140883E891E00E9424
:10121000240680918901F8018683F12C22C0E11017
:101220003CC06D2D8C2D0E9480086D2D8C2D0E9450
:101230008008E82E8111F1CFCF86D88A8F859889D2
:101240000E94C407292F22952F70243078F49F70B4
:101250002230A8F09923B9F0F8019681907F99F493
:10126000FE2C8F2D6496ECE00C946D1D2A5F2F7080
:10127000223068F0C8010E942406EF2CF1CF992398
:1012800011F0882369F3805E883050F3F3CF803FFC
:1012900038F3815F833070F7E3CF809189018160FB
:1012A00080938901BACF9D1113C090918301C91217
:1012B0000FC0E1100DC08683C8010E94240687E09C
:1012C000F801A3E8B1E001900D928A95E1F767CFAC
:1012D000C8010E947106882309F464CFEE2009F446
:1012E00061CF80918901803288F020918301309113
:1012F0008401398728879B868A86909187019C87FD
:101300001D868E87CE0108960E94240687E0F8018C
:10131000A3E8B1E001900D928A95E1F70E942508BB
:101320000E94140842CF90918901292F207FA1F4B7
:10133000682D9A8A898AA6017A899E2D0E947E0646
:1013400083E891E00E94240687E0F50111928A95D6
:10135000E9F70E94140861CF882309F482CF8091B5
:1013600084018D1110C080918301C8120CC0E1105E
:101370000AC09683C8010E94240687E0F5011192F5
:101380008A95E9F76ECFC8010E947106882309F497
:1013900009CFEE2009F406CF80918901803208F44C
:1013A000B5CF20918301309184013A8329839C82B7
:1013B0008B82909187019D831E828F83CE0101963F
:1013C000A3CF483C5105B8F5882309F4EECEFE2C96
:1013D000EE2009F4E7CE809184018D111EC080912A
:1013E0008301C8121AC08091890180FD0DC0982F19
:1013F000907F51F08683903F09F45ECF982F907FC5
:10140000905F8F70892B57CF87E0F801A3E8B1E098
:1014100001900D928A95E1F724CFC8010E947106D0
:10142000811174CF80918901816080938901C80105
:101430000E94240616CF682D9A8A898AA6017A8985
:101440009E2D0E947E0687E0F50111928A95E9F7AC
:10145000A6CEAEE0B0E0EFE2FAE00C945A1D288789
:1014600039874A875B876C877D878E87CE01089690
:101470000E949F088823B1F06C85662341F028857F
:1014800039854A855B857D858E850E94880617E0B3
:101490008091490190914A0189133DC02E96E3E065
:1014A0000C94761D87E0FE013896DE0111960190BE
:1014B0000D928A95E1F78C85882349F320914A01A2
:1014C00030E0C9010196877099274091490148177A
:1014D000190699F097E0929FD001939FB00D1124C7
:1014E000A55BBE4FFE01319601900D929A95E1F7F2
:1014F00080934A010E94F207CACF0E9451061092BF
:101500004A011092490187E0E3E8F1E0DF011D9212
:101510008A95E9F7BCCF819FC0011124855B9E4F5E
:101520000E949F08882309F4B9CFE09149011E9FCA
:10153000F0011124E55BFE4F20813181428153810E
:101540006481758186810E9488068091490190E0BE
:10155000019687709927809349019ACF80919201D3
:101560008695869586950895809192018770089555
:1015700090919201977081E009F480E00895809144
:101580009E01089590919E01892B80939E0108955C
:10159000809590919E01982390939E0108951092BA
:1015A0009E01089590919D01892B80939D0108953E
:1015B000809590919D01982390939D01089510929C
:1015C0009D01089508950E94E20A08959091930163
:1015D000292F282331F080958923809393010E943D
:1015E000E30A089508950E94F20A089590919401E3
:1015F000292F2823281729F0982B909394010E94D3
:10160000F30A089590919401292F282331F08095B1
:101610008923809394010E94F30A08958091940194
:10162000882329F01092940180E00E94F30A089523
:101630000F931F93CF93DF9300910A0110910B0139
:10164000C0919E0180919D01C82B809194018823B7
:1016500031F0C82B0E94621381110E940E0BF80119
:10166000C083C0910A01D0910B0148E050E06AE8C4
:1016700071E0CE010E94821D892B59F088E0FE01A5
:10168000AAE8B1E001900D928A95E1F7CE010E949F
:101690004913DF91CF911F910F9108950E94180B6C
:1016A000089508950E94510B08959091D30192FFDF
:1016B00011C098E0899F90011124622B60939201E0
:1016C0000E94DA06809192018695869586950E9401
:1016D000520B08950E94DA0608951092920180E05C
:1016E0000E94520B089590919201809589238093D6
:1016F0009201282F277069F4891759F09091D3012E
:1017000092FF07C08695869586950E94EA060E94FC
:101710006D0B08959091D30192FB222720F9281791
:1017200069F080FB92F99093D3018091D20190915E
:10173000D3010E94D20B82E00E94730B0895809126
:10174000D30182FB882780F991E089270E948A0BC8
:10175000089581E00E948A0B089580E00E948A0B20
:1017600008956FEF7FEF90E080E00E94DA1D08950A
:1017700090E080E00E94A61D21E0853E9E4F09F08A
:1017800020E0822F089582E090E00E94981D089545
:1017900083E090E00E94981D089584E090E00E940C
:1017A000A61D0895BC0184E090E00E94DA1D089512
:1017B0008FE090E00E94A01D0895AB01BC018FE076
:1017C00090E00E94CE1D0895AB01BC0183E190E042
:1017D0000E94CE1D089560E070E0CB010E94E40BF2
:1017E0000895A8E0B0E0E7EFFBE00C945B1D65EE28
:1017F0007EEF90E080E00E94DA1D60E082E090E001
:101800000E94BC1D81E090E09093480180934701C5
:1018100061E083E090E00E94BC1D60E074E184E040
:1018200090E00E94DA1D60E086E090E00E94BC1D1E
:1018300060E087E090E00E94BC1D40E050E0BA010B
:1018400088E090E00E94CE1D60E083E290E00E947C
:10185000BC1D60E08CE090E00E94BC1D60E08DE06B
:1018600090E00E94BC1D19821A821B821C821D827C
:101870001E821F82188648E050E067E170E0CE01CA
:1018800001960E94AC1D40E050E0BA018FE190E06B
:101890000E94CE1D0E9420022896E2E00C94771D43
:1018A0000E94F10B0895682F8EE090E00E94BC1D0D
:1018B0000895A6E0B0E0EFE5FCE00C94591D0E940D
:1018C0009A148C0180919F019091A001801791073B
:1018D00081F019821A820E949A14682F49815A81D4
:1018E000792F80E090E00E9474031093A001009390
:1018F0009F012696E4E00C94751D0E94A614609347
:10190000AA017093AB018093AC019093AD016093F9
:10191000A6017093A7018093A8019093A90108954F
:101920000E94A6146093AA017093AB018093AC014E
:101930009093AD016093A2017093A3018093A401E1
:101940009093A50108950895089508950E94A50C07
:10195000089580E39FE00E94C20F0E94A40C0E94A1
:10196000E501089581E008950E94B20C08950E9457
:10197000B20C0895089508950E94BA0C0E94BB0C01
:1019800008950E94B80B811102C00E94500C0E9461
:10199000C30B8093AE010E94CD0B9093D301809333
:1019A000D2010E94C80B90E00E949E0680914501E2
:1019B000909146010E94BF0608950E9491140E94D2
:1019C000530F0E94C10C0E944E030E94F60F0E940A
:1019D000A60C0895A6E0B0E0E0EFFCE00C94591DE1
:1019E0000E94B40C81110DC00E94590C0E944B1032
:1019F00081110E94900C0E945B032696E4E00C94F7
:101A0000751D0E945F0F1091A10180E00E943A0FA6
:101A1000181751F38091AE0181FD0E94400F0E9482
:101A2000B70C082F80E00E943A0F182F8091A10177
:101A3000912F9827181303C00E947D0CD7CF90FFD9
:101A40000FC0002369F019821A820E949A14682F2D
:101A500049815A81792F81E0912F91700E947403FE
:101A60001093A101E9CF1F93CF93DF930E943F0E04
:101A7000EC01C11582E5D80708F03FC0C11590E51B
:101A8000D90708F0C2C0C83ED105C0F4C03ED10598
:101A900080F4C53AD10548F4C430D10550F4C130C2
:101AA000D10539F0D0E0C0E004C0CD3CD105D0F381
:101AB000D065CE01DF91CF911F910895C11580E4CB
:101AC000D80708F053C0C11590E2D90708F0B7C095
:101AD000C11581E0D80730F38D2F0E94E10E182F39
:101AE000CE0199270E943F0EC12FD0E0DC2FCC27DA
:101AF000CC27DF71C82BD92BDCCFC03892E5D907B2
:101B0000A8F4C03682E5D80708F063C0C03492E577
:101B1000D90708F049C0C03282E5D80788F1CF71F3
:101B2000D0E0DC2FCC27C16FD06AC3CFC03C92E598
:101B3000D90780F48C2F8F71C03AD24508F45EC06B
:101B40000E94E10EC82FD0E0DC2FCC27CC27DF711C
:101B5000D062AFCFC03E82E5D80708F0A3CFDC2F1C
:101B6000CC27CC27DF71C06FD06AA3CFCE019927D5
:101B70000E943F0ECC27DF70C82BD92BD06A99CF9B
:101B80002C2F2695269590E2299F900111248C2FC9
:101B90008370C1E0D0E002C0CC0FDD1F8A95E2F770
:101BA000C22BD32BDD6885CF2C2F26952695277049
:101BB00080E2289F900111248C2F8370C1E0D0E037
:101BC00002C0CC0FDD1F8A95E2F7C22BD32BDC6855
:101BD00070CF2C2F26952695277090E2299F900193
:101BE00011248C2F8370C1E0D0E002C0CC0FDD1F28
:101BF0008A95E2F7C22BD32BDA685BCFC82FD0E0EF
:101C0000DC2FCC27C46FD06A54CF8C2F8F710E94E9
:101C1000E10E55E0D695C7955A95E1F7CF70D0E023
:101C2000DC2FCC27282F30E084FF05C044E0220FB2
:101C3000331F4A95E1F7C22BD32BD0693ACF8D2FB2
:101C40008F710E94E10E182FCE0199270E943F0E3E
:101C5000C12FD0E0DC2FCC27CC27DF71C82BD92BAC
:101C600077CF672B21F440E00E945502089590E061
:101C700080E008950E94310E0E94330D089582384D
:101C80009105B9F1B0F48133910509F47DC048F4B0
:101C90008932910509F46DC08A32910509F47BC03F
:101CA00008958533910509F45FC08933910509F1E1
:101CB0000895833E9105D9F138F4803E910529F1CC
:101CC000823E910579F10895863E9105D9F1873ECE
:101CD000910509F43EC0843E910541F52091D30160
:101CE00021FF24C08091D20184FD19C087EE90E0CD
:101CF00008952091D201237009F05AC02091D30198
:101D000023FF14C089E290E008952091D20120FDC4
:101D100038C03091D30130FF09C024FF43C090E0A8
:101D200080E008952091D20122FDF7CF08952091FF
:101D3000D20122FD3AC03091D30130FD39C024FFD9
:101D4000F5CFEDCF2091D20123FFF0CF24FDE7CFD7
:101D5000CDCF2091D20123FD2EC03091D30131FF90
:101D6000EECF84EE90E008952091D20125FFDECFE2
:101D7000C9CF2091D20125FD21C02091D30123FF9D
:101D8000D5CF89E390E0D2CF2091D20126FFCECFEC
:101D90008AE290E008952091D20126FFC7CF81E327
:101DA00090E0089583EE90E0089582EE90E008952B
:101DB00080EE90E0089586EE90E0089585E390E04F
:101DC00008959091D20192FF10C041E0282F247114
:101DD000243009F040E031E0282F2871283009F044
:101DE00030E0431711F02CE0822793FF10C041E050
:101DF000282F2471243109F040E031E0282F287188
:101E0000283109F030E0431711F02CE0822730919F
:101E1000D30130FF10C051E0282F2171213009F08B
:101E200050E041E0282F2871283009F040E0541795
:101E300011F029E0822731FF10C041E0282F2171E5
:101E4000213109F040E031E0282F2871283109F0D4
:101E500030E0431711F029E0822794FD877E089532
:101E600080E0089508950E94320F089508950E9419
:101E7000360F0895E82FF0E0EB52FE4F8081089571
:101E800008956A98729A08952CB1860F911D30E0DA
:101E900035952795359527952095309521703327D1
:101EA000FC01208308950E94410F1092D5011092E9
:101EB000D40181E00E94840F0E94330F0895A1E0B5
:101EC000B0E0E5E6FFE00C945A1D198260E0CE0117
:101ED00001960E94440F9091D401898121E09813CA
:101EE00001C020E098138093D40141E065ED71E0DA
:101EF00084ED91E00E94850F182F0E94370F812FEB
:101F00002196E3E00C94761D0895CF92DF92EF9234
:101F1000FF921F93CF93DF936C017B01122F22233B
:101F200071F0C42FD0E0AE01BC01C7010E94821D38
:101F3000892B71F0AE01B601C7010E948F1D812F60
:101F4000DF91CF911F91FF90EF90DF90CF90089598
:101F500010E0F5CF0E94EA0C08950E9433140E940D
:101F60004F160E94A90C0E9469160E94DD0C0E9467
:101F700076160E947B160E94AA0F0E9495160E9458
:101F8000BC0CF7CF909331018093300108950895F0
:101F9000ACE0B0E0EEECFFE00C945B1D4F835887A3
:101FA00069877A878B879C8786E0FE013796DE01FA
:101FB000119601900D928A95E1F729813A814B8122
:101FC0005C816D817E8180E090E02C96E2E00C9453
:101FD000771D21E030E001C0220F4A95EAF7662321
:101FE00011F0822B0895209582230895E091280115
:101FF000F091290109950E9430020E94C70F0895AF
:10200000CF936FEA71E086EB91E00E94CD13C82F69
:10201000882321F086EB91E00E9454139091B70140
:1020200086E0E6EBF1E0DF01282F1D922A95E9F723
:102030009093B701AFEAB1E001900D928A95E1F774
:1020400081E0C11103C0911101C080E08170CF9186
:102050000895ACE0B0E0EFE2F0E10C945B1D4F833B
:1020600058878B879C87719579876A8786E0FE0100
:102070003796DE01119601900D928A95E1F729813C
:102080003A814B815C816D817E8180E090E02C966D
:10209000E2E00C94771DE0912A01F0912B01409130
:1020A000B6015091B7016091B8017091B90180916A
:1020B000BA019091BB010995F42FE52FCB01209334
:1020C000B6013093B701F093B801E093B901609382
:1020D000BA019093BB01A9016F2F7E2F0E94291096
:1020E000F42FE52FCB012093B6013093B701F09385
:1020F000B801E093B9016093BA019093BB01A901C3
:102100006F2F7E2F0E941A012093B6013093B701E2
:102110004093B8015093B9016093BA017093BB0129
:102120000E940010811106C08091B5011092B50186
:102130008170089581E090E0F9CFE0912C01F09159
:102140002D01099508959C01215D31092830310543
:1021500050F44FE2480F8091B7010E94E90F80933D
:10216000B7010E9400100895ACE0B0E0EAEBF0E1A6
:102170000C94591D4F8358878B879C87162F072FE8
:102180000E944011811104C0911102C0902F812F33
:1021900089879A8786E0FE013796DE0111960190C5
:1021A0000D928A95E1F729813A814B815C816D819D
:1021B0007E8180E090E02C96E4E00C94751D2C98D4
:1021C00008952C9A08953E98469898E080E02F98BC
:1021D00025E02A95F1F7000026B126FB222720F9F9
:1021E000880F822B2F9A25E02A95F1F70000915055
:1021F00071F708953E9A27E030E090E02F98AC0107
:10220000022E02C0559547950A94E2F740FF0EC092
:10221000469A4AE04A95F1F700C02F9A21503109B9
:1022200068F785E18A95F1F7000008954698F1CFA7
:10223000CF93C82F0E94DF108C2F0E94FA100E94AB
:10224000E310C82F85E08A95F1F700000E94E110A5
:102250008C2FCF910895CF93DF93D82FC62F0E9454
:10226000DF108D2F80680E94FA108C2F0E94FA10C8
:102270000E94E110DF91CF91089587FD8068089555
:10228000CF93DF930E94DF1083E60E94FA100E9432
:10229000E310C82F0E94E310D82F0E94E1108C2F6A
:1022A0000E943D11C82F8D2F0E943D11982F8C2F19
:1022B000DF91CF910895279A3E9A249A6AE58AE39E
:1022C0000E942B112FE78FEA92E02150804090402E
:1022D000E1F700C000000E944011089561E08D37D1
:1022E000910548F06DE0863D26E0920720F46DE709
:1022F00070E00E94311D606189E10E942B110895F8
:1023000089E10E94181180712DE7829FC00111247C
:102310000895CF93DF93EB0186319C4711F50E941E
:10232000BF0A9D81992399F08A7A91E009F490E09F
:102330009093BC01811109C089E20E94B2130E94EE
:102340004E0B80E0DF91CF91089585E3F6CF809129
:10235000BC01811104C089E20E94BA13F0CF85E369
:10236000FBCF81E0EFCFCF93DF93EC01FB018581C1
:10237000882309F4D2C09E0130572332310508F07A
:10238000B2C00E94CD0B9093D3018093D201FE0185
:10239000E150F047E232F10520F4E250F24E0C94A5
:1023A000451D8091D20181608093D20193C08091BC
:1023B000D30188608093D3018DC08091D201826067
:1023C000F3CF8091D2018460EFCF8091D2018860F9
:1023D000EBCF8091D3018160EDCF8091D3018260FA
:1023E000E9CF8091D2018061DFCF8091D2018062FC
:1023F000DBCF8091D2018064D7CF0E9451068091BB
:10240000D2018068D1CF8091D2018C60CDCF8091F4
:10241000D3018360CFCF8091D2018E7FC5CF8091D1
:10242000D301877FC7CF8091D2018D7FBDCF8091AF
:10243000D2018B7FB9CF8091D201877FB5CF8091B8
:10244000D3018E7FB7CF8091D3018D7FB3CF8091A1
:10245000D2018F7EA9CF8091D2018F7DA5CF8091AF
:10246000D2018F7BA1CF0E9451068091D2018F773C
:102470009BCF8091D201837F97CF8091D3018C7FB6
:1024800099CF8091D20182FB992790F921E0922780
:1024900090FB82F990FB83F987CF8091D301982F2D
:1024A000909591708E7F892B90FB81F983CF9091CD
:1024B000D201892F8F7B96FF806476CF0E945106D0
:1024C0009091D201892F97FB87F980586DCF81E0D9
:1024D0000E94530C8091D2019091D3010E94D20BA3
:1024E0000E94510680E0DF91CF91089580E0F0CF07
:1024F0009091D201892F8F7E94FF806155CF90916A
:10250000D201892F8E7F90FF81604ECF9091D301B1
:10251000892F877F93FF88604DCF81E0E4CF0F93B1
:102520001F93CF93DF93C42FD22FFC018581882383
:10253000C9F04093BF010E949A149093BE0180930A
:10254000BD0180E28C0F883040F4C77081E001C08B
:10255000880FCA95EAF70E942604DF91CF911F9158
:102560000F9108951091BF01141332C08091BD01E5
:102570009091BE010E94B214883C910548F5C0E2DA
:10258000CD0F1D17B9F080E2810F883040F417702D
:1025900081E001C0880F1A95EAF70E942D04C83027
:1025A00048F481E09D2F977001C0880F9A95EAF753
:1025B0000E942604802F0E941D04C83070F6D77038
:1025C00081E001C0880FDA95EAF70E942D04C5CF9B
:1025D00080E28C0F883008F6C77081E001C0880F58
:1025E000CA95EAF7F2CF0F93DB0188519C478730F9
:1025F0009105A0F5FC01E05EF14E0C94451D06E24C
:1026000021EE41EE6AE17CE7CD010E948F1280E06D
:102610000F91089507E225EE45EE6BE17CE7F4CFDC
:1026200006E221EE40EE68E17CE7EECF07E225EE20
:1026300044EE69E17CE7E8CF06E221EE42EE6CE190
:102640007CE7E2CF07E225EE46EE6DE17CE7DCCFEA
:1026500008E221E045EE6EE17CE7D6CF15968C913D
:10266000882319F01092BF01D3CF81E0D1CF90938E
:10267000C1018093C0010895E091C001F091C101B2
:10268000309729F00190F081E02D0995089580E0C0
:102690000895E091C001F091C101309721F00280CE
:1026A000F381E02D09950895E091C001F091C101F9
:1026B000309739F022E0DC012C930680F781E02D81
:1026C0000995089540910A0150910B019A012E5FDE
:1026D0003F4F485F5F4F80E02417350709F40895A6
:1026E000F90191919F019923B9F38F5FF5CF882369
:1026F00071F020910A0130910B01F9013296285FA7
:102700003F4F9191981729F0E217F307D1F780E036
:10271000089581E008959C01FC0132969FEF80E0CE
:102720004191461751F09F3F19F4411101C0982F74
:102730008F5F8630A9F79F3F09F40895290F311D57
:1027400097FD3A95F90162830895FC013296089647
:102750002191261303C0DF0111971C92E817F90796
:10276000B9F70895682F80910A0190910B010E949A
:102770008B130895682F80910A0190910B010E949C
:10278000A5130895E0910A01F0910B01329686E0BD
:10279000DF011D928A95E9F70895DC01FB0111968E
:1027A0009C9111978181981322C012968C91129757
:1027B000882319F0928189131AC013968C9113976C
:1027C000882319F09381891312C015968C9115975F
:1027D000882319F0958189130AC014969C91992336
:1027E00021F081E02481291303C080E001C081E051
:1027F0008170089508950E94FA130895811106C00A
:1028000081E08093C2010E94FB13089582E0F9CF1A
:1028100083E08093C2010E94FB1308950E94FE137F
:10282000089581E08093C2010E94FB1308950E94E5
:1028300011140895089508950E941B140895089591
:1028400008950E941A1408950E941F140E945F0F99
:102850000E94201480E00E943A0F91E0811101C093
:1028600090E0892F089585B7806885BF85B7806817
:1028700085BF08951F921FB61F9211248F939F93B7
:10288000AF93BF938091C301811113C08091D60192
:102890009091D701A091D801B091D9014196A11D85
:1028A000B11D8093D6019093D701A093D801B09326
:1028B000D901BF91AF919F918F911F901FBE1F9023
:1028C00018958091DE01843031F10E94300310921E
:1028D000C30188E190E020E40FB6F894A8958093B6
:1028E00060000FBE2093600083B7817F846083BF48
:1028F00083B7816083BF7894889583B78E7F83BFC9
:102900000FB6F894A895809160008861809360006C
:10291000109260000FBE08950E9451060E94370376
:10292000089582E084BD93E095BD9AEF97BD8093B2
:102930006E0008952FB7F8948091D6019091D70139
:10294000A091D801B091D9012FBF08952FB7F89465
:102950006091D6017091D7018091D8019091D901F1
:102960002FBF08959C014FB7F8948091D6019091A4
:10297000D701A091D801B091D9014FBF821B930B11
:10298000089578941F921FB61F9211248F939F93DE
:10299000AF93BF938091D6019091D701A091D801B8
:1029A000B091D9010196A11DB11D8093D6019093DC
:1029B000D701A093D801B093D901BF91AF919F9156
:1029C0008F911F901FBE1F90189581E08093E000AB
:1029D00080E28093D8001092C9008FE19EE40197B5
:1029E000F1F700C0000087E090EBDC018093E70185
:1029F0009093E801A093E901B093EA0188E19CE09B
:102A00000FB6F894A895809360000FBE9093600075
:102A1000FFCF88E19CE00FB6F894A8958093600002
:102A20000FBE90936000FFCF8091CC010895089570
:102A300008959B01BA019091DE019430E9F48F7002
:102A40008093E9009FEF8091E800915085FD06C0DA
:102A500085ED8A95F1F700009111F5CF8091E8009E
:102A600085FF0AC050E040E0C9010E940C17809128
:102A7000E8008E778093E800089546E050E0BC01BE
:102A800082E00E9419150895CF93DF93EC0148E08E
:102A900050E0BC0181E00E94191588E0FE01A4EC21
:102AA000B1E001900D928A95E1F7DF91CF91089501
:102AB0008091DD01811109C00E949C180E94F918C3
:102AC0008091E20084608093E20008951092DD011D
:102AD00008950E94111408956091DA0181E0611156
:102AE00001C080E00E94081408959091DE0181E009
:102AF000943009F080E06091DA010E940E1408958C
:102B000042E061EC81E00E94181842E261EC82E050
:102B10000E9418189091DE0181E0943009F080E065
:102B20006091DA010E94FE1308958091E0018330E4
:102B300009F461C030F48130D1F1823009F49EC0D3
:102B400008958A3009F48AC08B3009F46FC0893047
:102B500009F050C08091DF01813209F04BC08091B3
:102B6000E3019091E401029708F044C08091E800ED
:102B7000877F8093E8008091E80082FF37C09091C2
:102B8000F3008091F200029731F48091F1008130DE
:102B900011F0863021F48091F1008093CC01809176
:102BA000E8008B778093E8000E944C1823C0809146
:102BB000DF01813AF9F48091E800877F8093E80093
:102BC0008091E3019091E401892B61F468E084EC49
:102BD00091E070E00E945B178091E8008B77809312
:102BE000E800089560E090E080E0F3CF8091DE019E
:102BF0008111C1CF08958091DF01813AD9F7809189
:102C0000E3019091E401892BA9F78091E800877F87
:102C10008093E8008091E80080FFFCCF809116014E
:102C20008093F1008091E8008E77BCCF8091DF0126
:102C3000813201F78091E3019091E401892BD1F673
:102C40008091E800877F8093E8000E944C18809173
:102C5000E101809316010E94510608958091DF01E1
:102C6000813241F68091E800877F8093E8000E94DE
:102C70004C188091E2018093CD0108958091DF018D
:102C8000813A09F0B7CF8091E800877F8093E80010
:102C90008091E80080FFFCCF8091CD01C1CF84B747
:102CA000877F84BF0FB6F894A895809160008861F3
:102CB00080936000109260000FBE80E890E00FB635
:102CC000F89480936100909361000FBE0E941714E6
:102CD00008950E949C180E94F918E2EEF0E08081AD
:102CE0008460808378940E94781B08958CE091E042
:102CF0000E94371308958091DE01853031F4809170
:102D0000DE01853019F00E948C1408950E94611430
:102D10000E942414882399F38091DC01882379F39D
:102D20000E94F6160E945106EACF08959A0140913A
:102D3000E5015091E6010E949E160895492F5527FE
:102D40004330510519F168F44130510509F444C08C
:102D50004230510509F445C090E080E050E040E089
:102D600025C04132510549F142325105A9F784E4A9
:102D700090E04CE751E061157105C1F089E490E005
:102D800043E351E06130710589F0E6CF9927813046
:102D9000910581F0009729F00297F1F6EEEAF0E054
:102DA00002C0E2EEF0E0849190E0AF01F9015183BE
:102DB00040830895EEECF0E0F6CF89E090E048EF34
:102DC00050E06115710591F389E090E041E151E037
:102DD0006130710559F3C0CF82E190E041E251E0EA
:102DE000E5CF8BE390E046EE50E0E0CF80E189BD97
:102DF00082E189BD09B400FEFDCF8091D8008F7DAE
:102E00008093D8008091E00082608093E000809100
:102E1000E00081FDFCCF0895AF92BF92CF92DF9288
:102E2000FF920F931F93CF93DF936C01EB018A0105
:102E30000E946B18F82E811123C00115110539F07D
:102E4000F80180819181C81BD90BC80ED91EB12C05
:102E5000A12C2097A9F08091E80085FD22C08091E7
:102E6000E8008E778093E80001151105A1F0F801C4
:102E700080819181A80EB91EB182A08285E0F82ED2
:102E80008F2DDF91CF911F910F91FF90DF90CF9009
:102E9000BF90AF9008950E946B188823D1F2F82E4E
:102EA000EFCFF60181916F018093F1002197FFEF41
:102EB000AF1ABF0ACECFFC018091E5019091E601E7
:102EC00086179707A0F06115710529F49091E80025
:102ED0009E779093E80090E06115710551F491118F
:102EE00008C08091E80082FF34C080E00895BC01F2
:102EF000F2CF8091DE018823C1F18530C1F180914C
:102F0000E80083FD30C08091E80082FDEACF809127
:102F1000E80080FFE1CF8091F3002091F200382F8C
:102F20006115710519F02830310558F091E028300D
:102F3000310509F090E02091E8002E772093E80019
:102F4000CBCF81918093F100615071092F5F3F4F8A
:102F5000E7CF8091DE01882341F0853041F08091F8
:102F6000E80083FFBECF81E0089582E0089583E00A
:102F70000895FC018091E5019091E601861797077D
:102F8000A0F06115710529F48091E8008E77809397
:102F9000E80090E06115710551F4911108C080912D
:102FA000E80082FF35C080E00895BC01F2CF809137
:102FB000DE018823C9F18530C9F18091E80083FDE5
:102FC00031C08091E80082FDEACF8091E80080FF67
:102FD000E1CF8091F3002091F200382F6115710547
:102FE00019F02830310558F091E02830310509F00A
:102FF00090E08091E8008E778093E800CBCF8491B9
:103000008093F1003196615071092F5F3F4FE6CFF9
:103010008091DE01882341F0853041F08091E80005
:1030200083FFBDCF81E0089582E0089583E0089595
:10303000982F973028F08F708093E90081E00895F1
:103040009093E900242F762F50E0981731F070917B
:10305000EC002091ED005091F00021FD02C09F5F37
:10306000E8CF3091EB003E7F3093EB003091ED00E4
:103070003D7F3093ED003091EB0031603093EB00F9
:103080007093EC002093ED005093F0002091EE003F
:1030900027FDE5CF80E008958091DF0187FF13C011
:1030A0008091E80082FF06C08091E8008B778093D2
:1030B000E80004C08091DE018111F2CF0895809173
:1030C000DE018823D9F38091E80080FFF8CF80915A
:1030D000E8008E77ECCF2091E4003091E50095E692
:1030E000A9012091EC00822F817020FF06C0809101
:1030F000E80080FF06C080E008952091E80022FDEE
:103100001AC08091DE01882389F0853089F0809192
:10311000EB0085FD0FC02091E4003091E5004217DF
:103120005307F9F29150E1F684E0089582E00895A2
:1031300083E0089581E008950E940B190E941319FD
:10314000E0EEF0E0808181608083E8EDF0E0808156
:103150008F77808319BCA7EDB0E08C918E7F8C9324
:1031600080818F7E80831092DD0108950F931F93DD
:10317000CF93DF930E940B190E941319C8EDD0E082
:1031800088818F77888388818068888388818F7D14
:10319000888319BC1092DE011092DA011092DC01D2
:1031A0001092DB0100EE10E0F80180818B7F8083BC
:1031B00088818160888342E060E080E00E94181886
:1031C000E1EEF0E080818E7F8083E2EEF0E08081AE
:1031D00081608083808188608083F80180818E7F18
:1031E0008083888180618883DF91CF911F910F91C7
:1031F0000895E8EDF0E080818F7E8083E7EDF0E0D8
:1032000080818160808384E082BF81E08093DD01E2
:103210000E94B6180895E8EDF0E080818E7F8083EB
:103220001092E20008951092DA001092E1000895E1
:103230001F920F920FB60F9211242F933F934F932B
:103240005F936F937F938F939F93AF93BF93EF930E
:10325000FF938091E10082FF0BC08091E20082FF2A
:1032600007C08091E1008B7F8093E1000E94771B73
:103270008091DA0080FF19C08091D80080FF15C0CE
:103280008091DA008E7F8093DA008091D90080FFF0
:1032900096C080E189BD82E189BD09B400FEFDCF01
:1032A00081E08093DE010E9458158091E10080FF4B
:1032B00019C08091E20080FF15C08091E2008E7FEE
:1032C0008093E2008091E20080618093E20080912F
:1032D000D80080628093D80019BC85E08093DE011D
:1032E0000E946C158091E10084FF2BC08091E20068
:1032F00084FF27C080E189BD82E189BD89B5982F0F
:10330000917080FFFBCF8091D8008F7D8093D80093
:103310008091E1008F7E8093E1008091E2008F7EBA
:103320008093E2008091E20081608093E2008091CE
:10333000DA01882309F449C084E08093DE010E9409
:1033400075158091E10083FF29C08091E20083FF21
:1033500025C08091E100877F8093E10082E0809327
:10336000DE011092DA018091E1008E7F8093E1000E
:103370008091E2008E7F8093E2008091E200806184
:103380008093E20042E060E080E00E9418188091A3
:10339000F00088608093F0000E946915FF91EF9122
:1033A000BF91AF919F918F917F916F915F914F915D
:1033B0003F912F910F900FBE0F901F90189519BC41
:1033C0001092DE010E94661570CF8091E30087FDA8
:1033D00093E09093DE01B3CF1F920F920FB60F923E
:1033E00011242F933F934F935F936F937F938F930A
:1033F0009F93AF93BF93CF93DF93EF93FF93D091BE
:10340000E900DF708091EC00C82FC17080FDC0E83A
:103410001092E9008091F000877F8093F00078940B
:103420000E94301A1092E9008091F0008860809329
:10343000F000CD2BCF70C093E900FF91EF91DF91A9
:10344000CF91BF91AF919F918F917F916F915F913C
:103450004F913F912F910F900FBE0F901F90189595
:10346000AAE2B0E0E6E3FAE10C945A1D8FED91E098
:103470002091F100FC012193CF01F1E0873E9F07ED
:10348000B9F70E9495158091E80083FF1EC18091D5
:10349000DF019091E0019A3008F017C1E92FF0E0C8
:1034A000E95DF14E0C94451D803899F0823809F0A1
:1034B0000CC18091E3018F70873008F006C18093C2
:1034C000E9008091EB0085FB882780F91092E900E4
:1034D00006C08091DB019091DC0191118260909196
:1034E000E800977F9093E8008093F1001092F1003C
:1034F0008091E8008E77E5C0882309F4D3C082303C
:1035000009F0E3C08091E1018111D6C08091E3010F
:103510008F702FEF280F263008F0D7C08093E90076
:103520002091EB0020FFC8C0933031F48091EB0074
:1035300080628093EB00C0C09091EB00906190930B
:10354000EB0021E030E001C0220F8A95EAF72093DA
:10355000EA001092EA008091EB008860EACF8111C6
:10356000B4C01091E1011F778091E3008078812B36
:103570008093E3008091E800877F8093E8000E94B9
:103580004C188091E80080FFFCCF8091E3008068B8
:103590008093E30082E0111183E08093DE0195C007
:1035A0008058823008F091C08091E1019091E20151
:1035B0008C3D23E09207A1F583E08A838AE2898328
:1035C0004FB7F894DE01139620E03EE051E2E32F7E
:1035D000F0E050935700E49120FF03C0E295EF70B4
:1035E0003F5FEF708E2F90E0EA30C0F0C7968D936A
:1035F0009D932F5F243159F74FBF8091E800877F5B
:103600008093E8006AE270E0CE0101960E945B17A9
:103610008091E8008B778093E80057C0C096E7CF91
:103620006091E3017091E401AE014F5F5F4F0E9432
:103630009616BC01892B09F448C09091E800977F49
:103640009093E80089819A810E94B917E1CF803870
:10365000E1F58091E800877F8093E8008091DA01AE
:103660008093F10045CF811130C09091E1019230FB
:1036700060F58091E800877F8093E8009093DA01FD
:103680000E944C188091DA01882311F084E005C073
:103690008091E30087FDFACF81E08093DE010E94F4
:1036A000801513C08091E101813079F481E093307D
:1036B00009F080E08093DC011092E9008091E8003D
:1036C000877F8093E8000E944C188091E80083FF78
:1036D0000AC08091E800877F8093E8008091EB002A
:1036E00080628093EB00AA96E3E00C94761D089527
:1036F000CF938091DE018823A1F0C091E900CF70C3
:103700009091EC00892F817090FD80E8C82B109279
:10371000E9008091E80083FD0E94301ACF70C093C9
:10372000E900CF9108955058BB27AA270E94AB1BF0
:103730000C948A1C0E947C1C38F00E94831C20F090
:1037400039F49F3F19F426F40C94791C0EF4E0959B
:10375000E7FB0C94731CE92F0E949B1C58F3BA17CB
:10376000620773078407950720F079F4A6F50C9497
:10377000BD1C0EF4E0950B2EBA2FA02D0B01B90144
:1037800090010C01CA01A0011124FF27591B99F0D7
:10379000593F50F4503E68F11A16F040A22F232FE3
:1037A000342F4427585FF3CF469537952795A79533
:1037B000F0405395C9F77EF41F16BA0B620B730BDA
:1037C000840BBAF09150A1F0FF0FBB1F661F771F4B
:1037D000881FC2F70EC0BA0F621F731F841F48F400
:1037E000879577956795B795F7959E3F08F0B0CF89
:1037F0009395880F08F09927EE0F97958795089570
:103800000E94071C6894B1110C94BE1C08950E947C
:10381000A31C88F09F5798F0B92F9927B751B0F0A3
:10382000E1F0660F771F881F991F1AF0BA95C9F744
:1038300014C0B13091F00E94BD1CB1E008950C9409
:10384000BD1C672F782F8827B85F39F0B93FCCF3BC
:10385000869577956795B395D9F73EF490958095C1
:10386000709561957F4F8F4F9F4F0895E89409C0E1
:1038700097FB3EF490958095709561957F4F8F4FA3
:103880009F4F9923A9F0F92F96E9BB279395F695B9
:10389000879577956795B795F111F8CFFAF4BB0F37
:1038A00011F460FF1BC06F5F7F4F8F4F9F4F16C09B
:1038B000882311F096E911C0772321F09EE8872F25
:1038C000762F05C0662371F096E8862F70E060E0E1
:1038D0002AF09A95660F771F881FDAF7880F96955A
:1038E000879597F9089597F99F6780E870E060E001
:1038F00008959FEF80EC089500240A941616170689
:1039000018060906089500240A94121613061406D0
:1039100005060895092E0394000C11F4882352F033
:10392000BB0F40F4BF2B11F460FF04C06F5F7F4FEB
:103930008F4F9F4F089557FD9058440F551F59F0D2
:103940005F3F71F04795880F97FB991F61F09F3F8C
:1039500079F087950895121613061406551FF2CFB5
:103960004695F1DF08C0161617061806991FF1CF05
:1039700086957105610508940895E894BB2766272C
:103980007727CB0197F908950E94D71C0C948A1CC5
:103990000E947C1C38F00E94831C20F0952311F0BB
:1039A0000C94731C0C94791C11240C94BE1C0E9462
:1039B0009B1C70F3959FC1F3950F50E0551F629FBC
:1039C000F001729FBB27F00DB11D639FAA27F00D78
:1039D000B11DAA1F649F6627B00DA11D661F829F9F
:1039E0002227B00DA11D621F739FB00DA11D621F84
:1039F000839FA00D611D221F749F3327A00D611DA1
:103A0000231F849F600D211D822F762F6A2F112482
:103A10009F5750409AF0F1F088234AF0EE0FFF1FB5
:103A2000BB1F661F771F881F91505040A9F79E3F0C
:103A3000510580F00C94731C0C94BE1C5F3FE4F3A2
:103A4000983ED4F3869577956795B795F795E79562
:103A50009F5FC1F7FE2B880F911D9695879597F96B
:103A60000895AA1BBB1B51E107C0AA1FBB1FA617C5
:103A7000B70710F0A61BB70B881F991F5A95A9F717
:103A800080959095BC01CD010895EE0FFF1F059024
:103A9000F491E02D09942F923F924F925F926F9292
:103AA0007F928F929F92AF92BF92CF92DF92EF92CE
:103AB000FF920F931F93CF93DF93CDB7DEB7CA1B4F
:103AC000DB0B0FB6F894DEBF0FBECDBF09942A887A
:103AD000398848885F846E847D848C849B84AA8422
:103AE000B984C884DF80EE80FD800C811B81AA81AF
:103AF000B981CE0FD11D0FB6F894DEBF0FBECDBF7A
:103B0000ED010895FB01DC0104C08D910190801945
:103B100021F441505040C8F7881B990B0895FB01D0
:103B2000DC0102C001900D9241505040D8F7089539
:103B3000F999FECF92BD81BDF89A992780B5089575
:103B4000A6E1B0E044E050E00C94E21DA8E1B0E052
:103B500042E050E00C94E21DDC01A40FB51F41507F
:103B6000504048F0CB01840F951F2E910E94BD1D3F
:103B700041505040D0F70895262FF999FECF92BDBD
:103B800081BDF89A019700B4021639F01FBA20BD22
:103B90000FB6F894FA9AF99A0FBE08950396272F54
:103BA0000E94BD1D0E94BC1D252F0E94BD1D242FFB
:103BB0000C94BD1D0196272F0E94BD1D0C94BC1DA9
:103BC000DC01CB01FC01F999FECF06C0F2BDE1BDDD
:103BD000F89A319600B40D9241505040B8F70895CC
:103BE000F894FFCF75047504C504C504A4042A0520
:103BF000A404A4042F05A005AF05AF050B127F1286
:103C00001312DD11E1111712E5111B122712F11128
:103C10007812F5112B12F9112F125712FD113312D0
:103C20005E12031239124112E9111F12ED11231213
:103C300007123D124D1267127612D7110F1286121B
:103C400010131613FF120A131C1322132813541AED
:103C50007C1A651B7C1A651BAF1AD01A651B271BC3
:023C6000331B14
:103C620058028403B00440066009950114154415F6
:103C720018153D1517150135366790919293949555
:103C82009697C6F1F3F5F6F75B11B4106E11801139
:00000001FF
